:020000040800F2
:1000000000280020B90800088D070008950700089F
:100010009D070008A5070008AD07000800000000C4
:10002000000000000000000000000000B50700080C
:10003000C107000800000000CD070008D90700082C
:100040000109000801090008010900080109000868
:100050000109000801090008010900080109000858
:100060000109000801090008010900080109000848
:100070000109000801090008010900080109000838
:100080000109000801090008010900080109000828
:100090000109000801090008010900080109000818
:1000A0000109000801090008010900080109000808
:1000B000010900080109000800000000010900080A
:1000C000010900080000000000000000010900080C
:1000D00000000000010900080109000800000000FC
:1000E00001090008010900080109000800000000DA
:1000F0000000000000000000000000000000000000
:0C01000000000000000000005FF808F1A3
:10010C0010B5054C237833B9044B13B10448AFF345
:10011C0000800123237010BD680000200000000047
:10012C00AC29000808B5034B1BB103490348AFF3D6
:10013C00008008BD000000006C000020AC29000805
:10014C004FF0FF0C1CEAD0521EBF1CEAD15392EAAE
:10015C000C0F93EA0C0F6FD01A4480EA010C40028A
:10016C0018BF5FEA41211ED04FF0006343EA5010E4
:10017C0043EA5111A0FB01310CF00040B1F5000F26
:10018C003EBF490041EAD3715B0040EA010062F1D5
:10019C007F02FD2A1DD8B3F1004F40EBC25008BFBF
:1001AC0020F00100704790F0000F0CF0004C08BFDD
:1001BC0049024CEA502040EA51207F3AC2BFD2F1AA
:1001CC00FF0340EAC250704740F400004FF00003B8
:1001DC00013A5DDC12F1190FDCBF00F000407047F2
:1001EC00C2F10002410021FA02F1C2F1200200FA30
:1001FC0002FC5FEA310040F1000053EA4C0308BFF7
:10020C0020EADC70704792F0000F00F0004C02BF47
:10021C00400010F4000F013AF9D040EA0C0093F0C2
:10022C00000F01F0004C02BF490011F4000F013B1C
:10023C00F9D041EA0C018FE70CEAD15392EA0C0F8A
:10024C0018BF93EA0C0F0AD030F0004C18BF31F0F5
:10025C00004CD8D180EA010000F00040704790F0CB
:10026C00000F17BF90F0004F084691F0000F91F06F
:10027C00004F14D092EA0C0F01D142020FD193EA35
:10028C000C0F03D14B0218BF084608D180EA0100BD
:10029C0000F0004040F0FE4040F40000704740F099
:1002AC00FE4040F44000704780F0004002E000BF88
:1002BC0081F0004142001FBF5FEA410392EA030F45
:1002CC007FEA226C7FEA236C6AD04FEA1262D2EB8F
:1002DC001363C1BFD218414048404140B8BF5B4294
:1002EC00192B88BF704710F0004F40F4000020F02D
:1002FC007F4018BF404211F0004F41F4000121F043
:10030C007F4118BF494292EA030F3FD0A2F101028C
:10031C0041FA03FC10EB0C00C3F1200301FA03F1CA
:10032C0000F0004302D5494260EB4000B0F5000FED
:10033C0013D3B0F1807F06D340084FEA310102F1AC
:10034C000102FE2A51D2B1F1004F40EBC25008BF5E
:10035C0020F0010040EA03007047490040EB000028
:10036C00013A28BFB0F5000FEDD2B0FA80FCACF129
:10037C00080CB2EB0C0200FA0CF0AABF00EBC25056
:10038C0052421843BCBFD0401843704792F0000F44
:10039C0081F4000106BF80F400000132013BB5E797
:1003AC004FEA41037FEA226C18BF7FEA236C21D00D
:1003BC0092EA030F04D092F0000F08BF0846704772
:1003CC0090EA010F1CBF0020704712F07F4F04D140
:1003DC00400028BF40F00040704712F100723CBF53
:1003EC0000F50000704700F0004343F0FE4040F47D
:1003FC00000070477FEA226216BF08467FEA23633B
:10040C000146420206BF5FEA412390EA010F40F425
:10041C00800070474FF0000304E000BF10F0004371
:10042C0048BF40425FEA000C08BF704743F0964358
:10043C0001464FF000001CE050EA010208BF704773
:10044C004FF000030AE000BF50EA010208BF7047FA
:10045C0011F0004302D5404261EB41015FEA010C0F
:10046C0002BF84460146002043F0B64308BFA3F107
:10047C008053A3F50003BCFA8CF2083AA3EBC253E9
:10048C0010DB01FA02FC634400FA02FCC2F1200208
:10049C00BCF1004F20FA02F243EB020008BF20F03F
:1004AC000100704702F1200201FA02FCC2F12002A5
:1004BC0050EA4C0021FA02F243EB020008BF20EA9A
:1004CC00DC7070474FEA4002B2F1FE4F0FD34FF091
:1004DC009E03B3EB12620DD94FEA002343F00043A5
:1004EC0010F0004F23FA02F018BF404270474FF053
:1004FC000000704712F1610F01D1420205D110F0DA
:10050C00004008BF6FF0004070474FF0000070478C
:10051C0080B500AF00F0F0F900F098F800F0D6F8D4
:10052C0000F0D4F83E4B1B681846FFF7CBFF034690
:10053C003C4A13603A4B1B683B491846FFF700FED8
:10054C0003461846FFF7BEFF0346384A1360374B85
:10055C001A68374B83FB02135911D317CB1A64213A
:10056C0001FB03F3D31A314A1360002001F0B0FAF7
:10057C00002001F02DFA01220221002001F068FA7E
:10058C002C4B1B68274A12682B49184601F058FD62
:10059C00284B1B681946002001F00CFD274B1B78DB
:1005AC001946002001F0A2FB254B1B681F4A12685C
:1005BC002149184601F044FD214B1B6819460020C7
:1005CC0001F0F8FC1F4B1B681F4A12681A491846A9
:1005DC0001F036FD01220121002001F039FA194BFE
:1005EC001B681946002001F0E5FC002001F015FD08
:1005FC000B4B1B6819461846FFF75CFE03461A4660
:10060C00074B1A60104B1B685B000F4A13604FF4CA
:10061C007A7000F0D3F9002001F0ECFC00BF81E708
:10062C0004000020900000200000C842940000202C
:10063C001F85EB5188000020C42900080800002009
:10064C008C000020840000200000002080B590B0B9
:10065C0000AF07F1180328220021184601F010FD05
:10066C003B1D00221A605A609A60DA601A610223FC
:10067C00BB610123BB621023FB6202237B6300235B
:10068C00BB634FF43013FB6307F11803184600F0FB
:10069C0031FC0346002B01D000F04AF80F237B609D
:1006AC000223BB608023FB6000233B6100237B6142
:1006BC003B1D0221184600F09FFE0346002B01D083
:1006CC0000F036F800BF4037BD4680BD80B586B01F
:1006DC0000AF07F1080300221A605A609A60DA60D2
:1006EC00114B9B69104A43F0080393610E4B9B69B5
:1006FC0003F008037B607B6801227F210B4800F02C
:10070C00E1FB7F23BB600123FB6000233B610123E2
:10071C007B6107F108031946044800F057FA00BF43
:10072C001837BD4680BD00BF00100240000C0140D0
:10073C0080B400AF72B600BF00BFFDE780B483B0D9
:10074C0000AF0E4B9B690D4A43F0010393610B4BB9
:10075C009B6903F001037B607B68084BDB69074AEC
:10076C0043F08053D361054BDB6903F080533B604E
:10077C003B6800BF0C37BD4680BC70470010024080
:10078C0080B400AF00BFFDE780B400AF00BFFDE751
:10079C0080B400AF00BFFDE780B400AF00BFFDE741
:1007AC0080B400AF00BFFDE780B400AF00BFBD4612
:1007BC0080BC704780B400AF00BFBD4680BC7047A2
:1007CC0080B400AF00BFBD4680BC704780B500AFA1
:1007DC0000F0D8F800BF80BD80B586B000AF78605F
:1007EC00144A154BD31A7B617B693B61134B1B6815
:1007FC00002B02D1114B124A1A60104B1A687B68FD
:10080C0013443A699A4207D201F042FC03460C2287
:10081C001A604FF0FF3309E0084B1B68FB60074B75
:10082C001A687B681344054A1360FB68184618372E
:10083C00BD4680BD00280020000400009800002068
:10084C00E801002080B400AF154B1B68144A43F03C
:10085C0001031360124B5A681149124B13404B6041
:10086C000F4B1B680E4A23F0847323F48033136000
:10087C000B4B1B680A4A23F480231360084B5B68FC
:10088C00074A23F4FE035360054B4FF41F029A6092
:10089C00054B4FF000629A6000BFBD4680BC7047AC
:1008AC00001002400000FFF800ED00E0002103E022
:1008BC000B4B5B58435004310A480B4B42189A427D
:1008CC00F6D30A4A02E0002342F8043B084B9A4252
:1008DC00F9D3FFF7B7FF01F0E1FBFFF719FE704703
:1008EC00582A000800000020680000206800002042
:1008FC00E8010020FEE7000080B500AF084B1B6844
:10090C00074A43F010031360032000F02BF90F206B
:10091C0000F008F8FFF712FF0023184680BD00BF57
:10092C000020024080B582B000AF7860124B1A688C
:10093C00124B1B7819464FF47A73B3FBF1F3B2FBED
:10094C00F3F3184600F035F90346002B01D00123D0
:10095C000EE07B680F2B0AD8002279684FF0FF302D
:10096C0000F00BF9064A7B681360002300E00123BA
:10097C0018460837BD4680BD0C000020140000202E
:10098C001000002080B400AF054B1B781A46054BB5
:10099C001B681344034A136000BFBD4680BC7047FC
:1009AC00140000209C00002080B400AF024B1B6898
:1009BC001846BD4680BC70479C00002080B584B0B2
:1009CC0000AF7860FFF7F0FFB8607B68FB60FB68F6
:1009DC00B3F1FF3F05D00A4B1B781A46FB68134452
:1009EC00FB6000BFFFF7E0FF0246BB68D31AFA6852
:1009FC009A42F7D800BF00BF1037BD4680BD00BF7C
:100A0C001400002080B485B000AF78607B6803F0E0
:100A1C000703FB600C4BDB68BB60BA684FF6FF0347
:100A2C001340BB60FB681A02BB68134343F0BF63FF
:100A3C0043F40033BB60044ABB68D36000BF143777
:100A4C00BD4680BC704700BF00ED00E080B400AF35
:100A5C00044BDB681B0A03F007031846BD4680BC39
:100A6C00704700BF00ED00E080B483B000AF0346D8
:100A7C003960FB7197F90730002B0ADB3B68DAB25F
:100A8C000C4997F907301201D2B20B4483F80023BA
:100A9C000AE03B68DAB20849FB7903F00F03043B28
:100AAC001201D2B20B441A7600BF0C37BD4680BC83
:100ABC00704700BF00E100E000ED00E080B489B0B9
:100ACC0000AFF860B9607A60FB6803F00703FB6164
:100ADC00FB69C3F10703042B28BF0423BB61FB692B
:100AEC000433062B02D9FB69033B00E000237B6136
:100AFC004FF0FF32BB6902FA03F3DA43BB681A40CA
:100B0C007B699A404FF0FF317B6901FA03F3D943BB
:100B1C007B680B40134318462437BD4680BC704796
:100B2C0080B582B000AF78607B68013BB3F1807F09
:100B3C0001D301230FE00A4A7B68013B53600F216C
:100B4C004FF0FF30FFF790FF054B00229A60044BEB
:100B5C0007221A60002318460837BD4680BD00BF27
:100B6C0010E000E080B582B000AF78607868FFF7E5
:100B7C0049FF00BF0837BD4680BD80B586B000AFC9
:100B8C000346B9607A60FB7300237B61FFF75EFF5D
:100B9C0078617A68B9687869FFF790FF024697F92F
:100BAC000F3011461846FFF75FFF00BF1837BD46E0
:100BBC0080BD80B582B000AF78607868FFF7B0FF79
:100BCC00034618460837BD4680BD000080B48BB084
:100BDC0000AF7860396000237B6200233B6261E1E7
:100BEC0001227B6A02FA03F3FB613B681B68FA691A
:100BFC001340BB61BA69FB699A4240F050813B6873
:100C0C005B68974A93425ED0954A934275D8954A51
:100C1C00934258D0934A93426FD8934A934252D0FE
:100C2C00914A934269D8914A93424CD08F4A93424D
:100C3C0063D88F4A934246D08D4A93425DD8122B8B
:100C4C002AD8122B59D801A252F823F0D30C000841
:100C5C00AD0C0008BF0C0008010D0008070D0008C2
:100C6C00070D0008070D0008070D0008070D000808
:100C7C00070D0008070D0008070D0008070D0008F8
:100C8C00070D0008070D0008070D0008070D0008E8
:100C9C00B50C0008C90C0008764A934213D02CE01E
:100CAC003B68DB683B6229E03B68DB6804333B62F2
:100CBC0024E03B68DB6808333B621FE03B68DB6881
:100CCC000C333B621AE03B689B68002B02D1042377
:100CDC003B6213E03B689B68012B05D108233B6208
:100CEC007B68FA691A6109E008233B627B68FA6940
:100CFC005A6103E000233B6200E000BFBB69FF2B9D
:100D0C0001D87B6801E07B6804337B61BB69FF2BF6
:100D1C0002D87B6A9B0002E07B6A083B9B003B612C
:100D2C007B691A680F213B6901FA03F3DB431A4014
:100D3C00396A3B6901FA03F31A437B691A603B6811
:100D4C005B6803F08053002B00F0A9804A4B9B6931
:100D5C00494A43F001039361474B9B6903F001033C
:100D6C00BB60BB68454A7B6A9B08023352F8233050
:100D7C00FB607B6A03F003039B000F2202FA03F370
:100D8C00DB43FA681340FB607B683D4A93420DD00D
:100D9C007B683C4A934207D07B683B4A934201D123
:100DAC00022304E0032302E0012300E000237A6A1B
:100DBC0002F0030292009340FA681343FB602F4940
:100DCC007B6A9B080233FA6841F823203B685B6816
:100DDC0003F48033002B06D02C4B1A682B49BB69CB
:100DEC0013430B6006E0294B1A68BB69DB432749A8
:100DFC0013400B603B685B6803F40033002B06D098
:100E0C00224B5A682149BB6913434B6006E01F4BC8
:100E1C005A68BB69DB431D4913404B603B685B68F8
:100E2C0003F48013002B06D0184B9A681749BB6942
:100E3C0013438B6006E0154B9A68BB69DB4313497F
:100E4C0013408B603B685B6803F40013002B1FD0CE
:100E5C000E4BDA680D49BB691343CB601FE000BF32
:100E6C000000321000003110000022100000211090
:100E7C000000121000001110001002400000014090
:100E8C0000080140000C014000100140000401402A
:100E9C000B4BDA68BB69DB4309491340CB607B6AB7
:100EAC0001337B623B681A687B6A22FA03F3002BDE
:100EBC007FF496AE00BF00BF2C37BD4680BC704798
:100ECC000004014080B483B000AF78600B467B8097
:100EDC0013467B707B78002B03D07A887B681A6171
:100EEC0003E07B881A047B681A6100BF0C37BD468F
:100EFC0080BC704780B586B000AF78607B68002BF3
:100F0C0001D1012372E27B681B6803F00103002B03
:100F1C0000F08780924B5B6803F00C03042B0CD021
:100F2C008F4B5B6803F00C03082B12D18C4B5B6866
:100F3C0003F48033B3F5803F0BD1894B1B6803F46A
:100F4C000033002B6CD07B685B68002B68D10123CD
:100F5C004CE27B685B68B3F5803F06D1804B1B6825
:100F6C007F4A43F4803313602EE07B685B68002B70
:100F7C000CD17B4B1B687A4A23F480331360784B7B
:100F8C001B68774A23F4802313601DE07B685B6841
:100F9C00B3F5A02F0CD1724B1B68714A43F480231C
:100FAC0013606F4B1B686E4A43F4803313600BE085
:100FBC006B4B1B686A4A23F480331360684B1B68C5
:100FCC00674A23F4802313607B685B68002B13D083
:100FDC00FFF7EAFC386108E0FFF7E6FC02463B69E4
:100FEC00D31A642B01D9032300E25D4B1B6803F475
:100FFC000033002BF0D014E0FFF7D6FC386108E08A
:10100C00FFF7D2FC02463B69D31A642B01D90323A8
:10101C00ECE1534B1B6803F40033002BF0D100E0E0
:10102C0000BF7B681B6803F00203002B63D04C4BA2
:10103C005B6803F00C03002B0BD0494B5B6803F08F
:10104C000C03082B1CD1464B5B6803F48033002B3C
:10105C0016D1434B1B6803F00203002B05D07B68B1
:10106C001B69012B01D00123C0E13D4B1B6823F010
:10107C00F8027B685B69DB00394913430B603AE08B
:10108C007B681B69002B20D0364B01221A60FFF7BE
:10109C008BFC386108E0FFF787FC02463B69D31AEA
:1010AC00022B01D90323A1E12D4B1B6803F0020392
:1010BC00002BF0D02A4B1B6823F0F8027B685B698D
:1010CC00DB00274913430B6015E0264B00221A6006
:1010DC00FFF76AFC386108E0FFF766FC02463B69E3
:1010EC00D31A022B01D9032380E11D4B1B6803F09B
:1010FC000203002BF0D17B681B6803F00803002B64
:10110C003AD07B689B69002B19D0174B01221A60CF
:10111C00FFF74AFC386108E0FFF746FC02463B69E2
:10112C00D31A022B01D9032360E10D4B5B6A03F048
:10113C000203002BF0D0012000F0A6FA1CE00A4BB1
:10114C0000221A60FFF730FC38610FE0FFF72CFC2F
:10115C0002463B69D31A022B08D9032346E100BF90
:10116C00001002400000424280044242924B5B6AF3
:10117C0003F00203002BE9D17B681B6803F0040326
:10118C00002B00F0A6800023FB758B4BDB6903F072
:10119C008053002B0DD1884BDB69874A43F0805379
:1011AC00D361854BDB6903F08053BB60BB680123C3
:1011BC00FB75824B1B6803F48073002B18D17F4B9B
:1011CC001B687E4A43F480731360FFF7EDFB3861B4
:1011DC0008E0FFF7E9FB02463B69D31A642B01D9FF
:1011EC00032303E1754B1B6803F48073002BF0D0D1
:1011FC007B68DB68012B06D16F4B1B6A6E4A43F090
:10120C00010313622DE07B68DB68002B0CD16A4B69
:10121C001B6A694A23F001031362674B1B6A664A17
:10122C0023F0040313621CE07B68DB68052B0CD1F4
:10123C00614B1B6A604A43F0040313625E4B1B6AEA
:10124C005D4A43F0010313620BE05B4B1B6A5A4A85
:10125C0023F001031362584B1B6A574A23F0040313
:10126C0013627B68DB68002B15D0FFF79DFB3861A0
:10127C000AE0FFF799FB02463B69D31A41F2883228
:10128C00934201D90323B1E04B4B1B6A03F00203D9
:10129C00002BEED014E0FFF787FB38610AE0FFF774
:1012AC0083FB02463B69D31A41F28832934201D93F
:1012BC0003239BE0404B1B6A03F00203002BEED18F
:1012CC00FB7D012B05D13C4BDB693B4A23F0805362
:1012DC00D3617B68DB69002B00F08780364B5B6841
:1012EC0003F00C03082B61D07B68DB69022B46D121
:1012FC00334B00221A60FFF757FB386108E0FFF709
:10130C0053FB02463B69D31A022B01D903236DE030
:10131C00294B1B6803F00073002BF0D17B681B6A10
:10132C00B3F5803F08D1244B5B6823F400327B6813
:10133C009B68214913434B601F4B5B6823F4741269
:10134C007B68196A7B685B6A0B431B4913434B60D0
:10135C001B4B01221A60FFF727FB386108E0FFF7EF
:10136C0023FB02463B69D31A022B01D903233DE030
:10137C00114B1B6803F00073002BF0D035E0104BC1
:10138C0000221A60FFF710FB386108E0FFF70CFB36
:10139C0002463B69D31A022B01D9032326E0064BE4
:1013AC001B6803F00073002BF0D11EE07B68DB6937
:1013BC00012B07D1012319E00010024000700040FE
:1013CC00600042420B4B5B68FB60FB6803F48032AD
:1013DC007B681B6A9A4206D1FB6803F470127B6827
:1013EC005B6A9A4201D0012300E0002318461837AB
:1013FC00BD4680BD0010024080B584B000AF78605F
:10140C0039607B68002B01D10123D0E06A4B1B684B
:10141C0003F007033A689A4210D9674B1B6823F014
:10142C00070265493B6813430B60634B1B6803F071
:10143C0007033A689A4201D00123B8E07B681B6825
:10144C0003F00203002B20D07B681B6803F004031D
:10145C00002B05D0594B5B68584A43F4E06353604A
:10146C007B681B6803F00803002B05D0534B5B68AB
:10147C00524A43F460535360504B5B6823F0F002C4
:10148C007B689B684D4913434B607B681B6803F07A
:10149C000103002B40D07B685B68012B07D1474BC5
:1014AC001B6803F40033002B15D101237FE07B680C
:1014BC005B68022B07D1414B1B6803F00073002BB8
:1014CC0009D1012373E03D4B1B6803F00203002B91
:1014DC0001D101236BE0394B5B6823F003027B687D
:1014EC005B68364913434B60FFF75EFAF8600AE01D
:1014FC00FFF75AFA0246FB68D31A41F2883293423C
:10150C0001D9032353E02D4B5B6803F00C027B687D
:10151C005B689B009A42EBD1274B1B6803F00703D7
:10152C003A689A4210D2244B1B6823F007022249D6
:10153C003B6813430B60204B1B6803F007033A68AE
:10154C009A4201D0012332E07B681B6803F004034C
:10155C00002B08D0194B5B6823F4E0627B68DB68D6
:10156C00164913434B607B681B6803F00803002B80
:10157C0009D0124B5B6823F460527B681B69DB005B
:10158C000E4913434B6000F021F802460B4B5B688D
:10159C001B0903F00F030A49CB5C22FA03F3094A37
:1015AC001360094B1B681846FFF7BCF9002318465B
:1015BC001037BD4680BD00BF002002400010024025
:1015CC00D82900080C0000201000002090B48AB02C
:1015DC0000AF294B3C1D0FCB84E80F0040F20123D8
:1015EC003B800023FB610023BB6100237B62002353
:1015FC007B6100233B62214B5B68FB61FB6903F061
:10160C000C03042B02D0082B03D02BE01C4B3B62A9
:10161C002BE0FB699B0C03F00F0328333B4413F8BE
:10162C00243C7B61FB6903F48033002B12D0134BF9
:10163C005B685B0C03F0010328333B4413F8283C34
:10164C00BB617B690E4A03FB02F2BB69B2FBF3F38D
:10165C007B6204E07B690B4A02FB03F37B627B6ACF
:10166C003B6202E0064B3B6200BF3B6A18462837E0
:10167C00BD4690BC704700BFC8290008001002404E
:10168C0000127A0000093D0080B485B000AF78608C
:10169C000A4B1B680A4AA2FB03235B0A7A6802FB0B
:1016AC0003F3FB6000BFFB685A1EFA60002BF9D1F4
:1016BC0000BF00BF1437BD4680BC70470C00002033
:1016CC00D34D621080B582B000AF03460A46FB7161
:1016DC001346BB71BB7903F00103002B14D0FB79CB
:1016EC005A4A342101FB03F3134404331868FB7981
:1016FC00564A342101FB03F3134408331B8801229F
:10170C001946FFF7DFFB13E0FB79504A342101FB4C
:10171C0003F3134404331868FB794C4A342101FB5E
:10172C0003F3134408331B8800221946FFF7CAFB46
:10173C00BB7903F00203002B14D0FB79434A34210C
:10174C0001FB03F313440C331868FB793F4A342133
:10175C0001FB03F3134410331B8801221946FFF7D6
:10176C00B1FB13E0FB79394A342101FB03F3134439
:10177C000C331868FB79354A342101FB03F313440D
:10178C0010331B8800221946FFF79CFBBB7903F032
:10179C000403002B14D0FB792C4A342101FB03F3F6
:1017AC00134414331868FB79284A342101FB03F3E2
:1017BC00134418331B8801221946FFF783FB13E0EF
:1017CC00FB79224A342101FB03F3134414331868C8
:1017DC00FB791E4A342101FB03F3134418331B8895
:1017EC0000221946FFF76EFBBB7903F00803002BB0
:1017FC0014D0FB79154A342101FB03F313441C3339
:10180C001868FB79114A342101FB03F3134420338C
:10181C001B8801221946FFF755FB13E0FB790B4A95
:10182C00342101FB03F313441C331868FB79074A7A
:10183C00342101FB03F3134420331B880022194687
:10184C00FFF740FB00BF0837BD4680BDE829000804
:10185C0080B588B000AF03460A46FB711346BB71D6
:10186C00FB79574A342101FB03F313442C331868DA
:10187C00FB79534A342101FB03F3134430331B88A7
:10188C0000221946FFF71EFBBA79FB791146184660
:10189C00FFF718FFFB794A4A342101FB03F3134489
:1018AC0024331868FB79464A342101FB03F31344B3
:1018BC0028331B8800221946FFF704FB414B9B6819
:1018CC00FB61414B1B68414AA2FB03239A0C134654
:1018DC009B001A443C4B1B683C49A1FB03139B0C1B
:1018EC005B08D31ABB61374B9B68FA69D31ABA6988
:1018FC009A42F8D8FB79324A342101FB03F31344A2
:10190C0024331868FB792E4A342101FB03F313446A
:10191C0028331B8801221946FFF7D4FA294B9B6800
:10192C007B61294B1B68294AA2FB03239A0C1346A3
:10193C009B001A44244B1B682449A1FB03139B0CEA
:10194C005B08D31A3B611F4B9B687A69D31A3A69BF
:10195C009A42F8D8FB791A4A342101FB03F3134459
:10196C0024331868FB79164A342101FB03F3134422
:10197C0028331B8800221946FFF7A4FA114B9B68E9
:10198C00FB60114B1B68114AA2FB03239B0C6422C6
:10199C0003FB02F20C4B1B680C49A1FB03139B0CC1
:1019AC005B08D31ABB60074B9B68FA68D31ABA68FA
:1019BC009A42F8D800BF00BF2037BD4680BD00BF9B
:1019CC00E829000810E000E00C00002083DE1B4337
:1019DC0080B586B000AF0346FB71FB790021184639
:1019EC00FFF736FFFB7901211846FFF731FF002383
:1019FC007B611FE0134B9B683B61134B1B68134AC5
:101A0C00A2FB03239B0C4FF47A7203FB02F20E4BE6
:101A1C001B680E49A1FB03139B0C5B08D31AFB60DC
:101A2C00084B9B683A69D31AFA689A42F8D87B69D2
:101A3C0001337B617B69012BDCD900BF00BF1837F8
:101A4C00BD4680BD10E000E00C00002083DE1B438F
:101A5C0080B584B000AF0346FB710B46BB711346D7
:101A6C007B71BB79012B15D17B797F33FB73FB7BAE
:101A7C001B09BB73FB7B03F00F037B73BA7BFB79F6
:101A8C0011461846FFF7E4FE7A7BFB79114618469F
:101A9C00FFF7DEFEBB79022B15D17B79413BFB7343
:101AAC00FB7B1B09BB73FB7B03F00F037B73BA7BC4
:101ABC00FB7911461846FFF7CBFE7A7BFB79114672
:101ACC001846FFF7C5FE00BF1037BD4680BD0000AD
:101ADC0080B58EB000AF0346FB7100BFFEF764FF0C
:101AEC000346312BFAD9FB797C4A342101FB03F3F1
:101AFC0013442C331868FB79784A342101FB03F327
:101B0C00134430331B8800221946FFF7DBF9FB79AD
:101B1C00724A342101FB03F3134424331868FB7914
:101B2C006E4A342101FB03F3134428331B88002233
:101B3C001946FFF7C7F9FB7900211846FFF7C2FDDC
:101B4C0000237B631FE0664B9B683B61654B1B6806
:101B5C00654AA2FB03239B0C4FF47A7203FB02F23F
:101B6C00604B1B686049A1FB03139B0C5B08D31AE9
:101B7C00FB605B4B9B683A69D31AFA689A42F8D8B7
:101B8C007B6B01337B637B6B952BDCD9FB7903215E
:101B9C001846FFF75DFE00233B631FE0504B9B682C
:101BAC00BB61504B1B68504AA2FB03239B0C4FF4A8
:101BBC007A7203FB02F24B4B1B684B49A1FB0313DC
:101BCC009B0C5B08D31A7B61454B9B68BA69D31A93
:101BDC007A699A42F8D83B6B01333B633B6B042B1D
:101BEC00DCD9FB7903211846FFF732FE0023FB6298
:101BFC001FE03B4B9B683B623A4B1B683A4AA2FB8B
:101C0C0003239B0C4FF47A7203FB02F2354B1B68D7
:101C1C003549A1FB03139B0C5B08D31AFB61304BBA
:101C2C009B683A6AD31AFA699A42F8D8FB6A01336C
:101C3C00FB62FB6A042BDCD9FB7903211846FFF706
:101C4C0007FE274B9B68BB62264B1B68264AA2FBF0
:101C5C0003239B0C962203FB02F2224B1B682249A6
:101C6C00A1FB03139B0C5B08D31A7B621C4B9B6878
:101C7C00BA6AD31A7A6A9A42F8D8FB7902211846C2
:101C8C00FFF7E6FDFB7902211846FFF7E1FDFB7932
:101C9C0008211846FFF7DCFDFB7900211846FFF7F9
:101CAC00D7FDFB790C211846FFF7D2FDFB790021FB
:101CBC001846FFF7CDFDFB7906211846FFF7C8FD46
:101CCC00FB7900211846FFF7C3FDFB79012118466B
:101CDC00FFF7BEFD00BF3837BD4680BDE8290008C0
:101CEC0010E000E00C00002083DE1B4380B590B0B8
:101CFC0000AF03460A46FB711346BB71BB7903F078
:101D0C000F0387F83F30BB7923F00F0387F83E3081
:101D1C00FB79A44A342101FB03F313442C331868D8
:101D2C00FB79A04A342101FB03F3134430331B88A5
:101D3C0001221946FFF7C6F897F83E301B09DAB2B4
:101D4C00FB7911461846FFF7BDFCFB79954A342107
:101D5C0001FB03F3134424331868FB79914A3421B3
:101D6C0001FB03F3134428331B8800221946FFF7A9
:101D7C00A9F88D4B9B68BB638C4B1B688C4AA2FBF0
:101D8C0003239A0C13469B001A44884B1B68884902
:101D9C00A1FB03139B0C5B08D31A7B63824B9B68E0
:101DAC00BA6BD31A7A6B9A42F8D8FB797D4A3421F4
:101DBC0001FB03F3134424331868FB79794A34216B
:101DCC0001FB03F3134428331B8801221946FFF748
:101DDC0079F8754B9B683B63744B1B68744AA2FB88
:101DEC0003239A0C13469B001A44704B1B687049D2
:101DFC00A1FB03139B0C5B08D31AFB626A4B9B6819
:101E0C003A6BD31AFA6A9A42F8D8FB79654A3421AC
:101E1C0001FB03F3134424331868FB79614A342122
:101E2C0001FB03F3134428331B8800221946FFF7E8
:101E3C0049F85D4B9B68BB625C4B1B685C4AA2FB20
:101E4C0003239B0C642203FB02F2584B1B6858497A
:101E5C00A1FB03139B0C5B08D31A7B62524B9B6850
:101E6C00BA6AD31A7A6A9A42F8D897F83F20FB7963
:101E7C0011461846FFF726FCFB794A4A342101FB30
:101E8C0003F3134424331868FB79464A342101FBCD
:101E9C0003F3134428331B8800221946FFF712F86A
:101EAC00414B9B683B62414B1B68414AA2FB03239D
:101EBC009A0C13469B001A443C4B1B683C49A1FBF3
:101ECC0003139B0C5B08D31AFB61374B9B683A6A74
:101EDC00D31AFA699A42F8D8FB79324A342101FBB9
:101EEC0003F3134424331868FB792E4A342101FB85
:101EFC0003F3134428331B8801221946FEF7E2FF33
:101F0C00294B9B68BB61294B1B68294AA2FB032305
:101F1C009A0C13469B001A44244B1B682449A1FBC2
:101F2C0003139B0C5B08D31A7B611F4B9B68BA692C
:101F3C00D31A7A699A42F8D8FB791A4A342101FBF0
:101F4C0003F3134424331868FB79164A342101FB3C
:101F5C0003F3134428331B8800221946FEF7B2FF03
:101F6C00114B9B683B61114B1B68114AA2FB03236D
:101F7C009B0C642203FB02F20C4B1B680C49A1FB6B
:101F8C0003139B0C5B08D31AFB60074B9B683A69E5
:101F9C00D31AFA689A42F8D800BF00BF4037BD4642
:101FAC0080BD00BFE829000810E000E00C00002014
:101FBC0083DE1B4380B584B000AF03463960FB71F0
:101FCC000023FB600BE0FB683A6813441A78FB793A
:101FDC0011461846FFF78AFEFB680133FB60FB686D
:101FEC003A6813441B78002BEDD100BF00BF1037AB
:101FFC00BD4680BD80B582B000AF0346FB71FB7956
:10200C0001211846FFF724FCFB7908211846FFF73D
:10201C001FFC00BF0837BD4680BD80B582B000AF45
:10202C000346FB71FB7901211846FFF711FCFB7984
:10203C000C211846FFF70CFC00BF0837BD4680BDCD
:10204C000EB46FF0004100B59CB01DAB0290069031
:10205C00079104910848094953F8042B059100682D
:10206C0002A9019300F092F90022029B1A701CB095
:10207C005DF804EB03B07047180000200802FFFF66
:10208C0003460244934200D1704703F8011BF9E761
:10209C00014B1868704700BF1800002070B500266F
:1020AC000C4D0D4C641BA410A64209D100F078FC19
:1020BC0000260A4D0A4C641BA410A64205D170BD23
:1020CC0055F8043B98470136EEE755F8043B984722
:1020DC000136F2E7502A0008502A0008502A00085E
:1020EC00542A00087047704738B50546002940D07F
:1020FC0051F8043C0C1F002BB8BFE41800F0DEF8BC
:10210C001C4A136833B9636014602846BDE8384034
:10211C0000F0DAB8A34208D9206821188B4201BF1D
:10212C0019685B6809182160EDE71A465B680BB10A
:10213C00A342FAD911685018A0420BD1206801446F
:10214C00501883421160E0D118685B680844106035
:10215C005360DAE702D90C232B60D6E720682118EC
:10216C008B4201BF19685B68091821606360546079
:10217C00CBE738BDE401002070B50F4E0C4631683A
:10218C00054611B900F0AAFB30602146284600F044
:10219C00A5FB431C03D14FF0FF34204670BDC41C7B
:1021AC0024F00304A042F8D0211A284600F096FB34
:1021BC000130F2D1EFE700BFE00100202DE9F84338
:1021CC00CD1C25F0030508350C2D38BF0C25002D32
:1021DC00064601DBA94204D90C2333600020BDE87C
:1021EC00F883DFF8D48000F069F8D8F800301C468A
:1021FC0044BB29463046FFF7BFFF431C044658D169
:10220C00D8F800402746002F43D1002C4BD0236830
:10221C003946304604EB030900F060FB814542D19E
:10222C00216830466D1A2946FFF7A6FF01303AD0D7
:10223C0023682B442360D8F800305A6862BBC8F876
:10224C0000700FE02268521B20D40B2A17D9611999
:10225C00A342256018BF5960636808BFC8F8001016
:10226C0062514B60304600F02FF804F10B00231D37
:10227C0020F00700C21A1CBF1B1AA350AFE76268FC
:10228C00A3420CBFC8F800205A60EBE723466468F1
:10229C00AEE73C467F68B6E71A465B68A342FBD1C3
:1022AC0000235360DEE70C233046336000F00CF85B
:1022BC0094E70560D6E700BFE40100200148FFF772
:1022CC0011BF00BFDC0100200148FFF70CBF00BFAD
:1022DC00DC0100202DE9F0471F468E688246BE4285
:1022EC000C4690460B682DD8B1F90C2012F4906F67
:1022FC0026D06569096905EB4505A3EB010905EBDA
:10230C00D5757B1C4B446D109D4238BF1D46530543
:10231C0027D52946FFF752FF064660B34A46216986
:10232C0000F0FAFAA38923F4906343F08003A381AD
:10233C0026614E4426603E466561A5EB0905A56005
:10234C00BE4200D93E4632464146206800F0ACFA07
:10235C000020A3689B1BA360236833442360BDE863
:10236C00F0872A4600F0E6FA06460028E0D15046EF
:10237C002169FFF7B9FE0C23CAF80030A3894FF08E
:10238C00FF3043F04003A381E9E700002DE9F04F53
:10239C0098468B8907461B060D4614469DB010D5F2
:1023AC000B6973B94021FFF709FF2860286130B928
:1023BC000C233B604FF0FF301DB0BDE8F08F402385
:1023CC006B610023099320238DF8293030234FF0C3
:1023DC000109CDF80C80DFF898818DF82A3023465E
:1023EC009A4613F8012B0AB1252AF9D1BAEB040B42
:1023FC000BD05B46224629463846FFF76BFF01306F
:10240C0000F0A780099A5A4409929AF80030002BE0
:10241C0000F09F8000234FF0FF32CDE905230AF135
:10242C00010A049307938DF853301A9354460522EE
:10243C0014F8011B4E4800F061FA049AD8B9D00682
:10244C0044BF20238DF85330110744BF2B238DF844
:10245C0053309AF800302A2B15D0544600204FF0F8
:10246C000A0C079A214611F8013B303B092B4BD93A
:10247C00B0B1079214E0A0EB080309FA03F313437D
:10248C00A2460493D2E7039B191D1B680391002BF2
:10249C00BBBF5B4242F0020207930793B8BF0492A2
:1024AC0023782E2B0AD163782A2B32D1039B02344A
:1024BC001A1D1B68039243EAE3730593DFF8B4A07B
:1024CC0003225046217800F019FA38B14022049BBF
:1024DC00A0EB0A00824013430134049314F8011B4F
:1024EC00062225488DF8281000F008FA002836D06E
:1024FC00224B1BBB039B073323F0070308330393C7
:10250C00099B334409936AE70C4601200CFB023209
:10251C00A8E700234FF00A0C194601340593204616
:10252C0010F8012B303A092A03D9002BC6D005919B
:10253C00C4E7044601230CFB0121F0E703AB009335
:10254C002A4638460E4B04A9AFF30080421C0646BF
:10255C00D6D1AB895B063FF52DAF09982CE703ABC1
:10256C0000932A463846064B04A900F07DF8EDE7A7
:10257C001C2A0008222A0008262A00080000000055
:10258C00E12200082DE9F047164698468A680B6947
:10259C0007469342B8BF1346336091F843200C466C
:1025AC00DDF820900AB1013333602368990642BFED
:1025BC00336802333360256815F0060506D104F143
:1025CC00190AE36832689B1AAB422BDC94F843304F
:1025DC002268003B18BF0123920630D4414638468E
:1025EC0004F14302C847013023D02368226903F069
:1025FC000603042B14BF002533684FF0000608BFF8
:10260C00E56804F11A0408BFED1A54F8123C08BF2F
:10261C0025EAE5759342C4BF9B1AED18B5421AD151
:10262C00002008E00123524641463846C847013095
:10263C0003D14FF0FF30BDE8F0870135C1E7302002
:10264C00E11881F843005A1C94F8451022440233D7
:10265C0082F84310C2E70123224641463846C84758
:10266C000130E6D00136D9E72DE9FF470F7E9146C0
:10267C00782F80460C469A460C9E01F1430207D8EF
:10268C00622F0AD8002F00F0D380582F00F0BA80A8
:10269C0004F1420684F842703AE0A7F16303152B6B
:1026AC00F6D801A151F823F00D27000821270008C6
:1026BC009D2600089D2600089D2600089D260008E2
:1026CC00212700089D2600089D2600089D2600084D
:1026DC009D260008232800084B270008DD2700084A
:1026EC009D2600089D260008452800089D26000808
:1026FC004B2700089D2600089D260008E5270008AA
:10270C0033681A1D1B68326004F1420684F84230AB
:10271C0001239EE033682068191D3160060601D53F
:10272C001D6803E04506FBD5B3F90050002D03DA14
:10273C002D236D4284F843300A23594811E0216857
:10274C003368080653F8045B02D4490648BFADB29F
:10275C006F2F336014BF0A2308235148002184F8DB
:10276C0043106668002EA8BF2168A660A4BF21F0A4
:10277C00040121600DB9002E4BD01646B5FBF3F1C8
:10278C0003FB1157C75D06F8017D2F46BB420D4672
:10279C00F4D9082B0BD12368DF0708D523696168AE
:1027AC009942DEBF302306F8013C06F1FF36921B3E
:1027BC0022614B4621464046CDF800A003AAFFF704
:1027CC00E1FE01304AD14FF0FF3004B0BDE8F08794
:1027DC00236843F0200323607827324884F845703F
:1027EC00236831681F0651F8045B02D45F0648BFAA
:1027FC00ADB23160D90744BF43F0200323601DB153
:10280C001023ABE72648E9E7236823F02003236075
:10281C00F6E71646BDE733682568181D6169306018
:10282C002E061B6801D5196002E06806FBD51980DD
:10283C00002316462361BCE7336800211A1D326061
:10284C001E686268304600F059F808B1801B606061
:10285C0063682361002384F84330AAE73246494673
:10286C0040462369D0470130ADD023689B0713D471
:10287C00E068039B9842B8BF1846A6E7012332468E
:10288C0049464046D04701309DD00135E368039955
:10289C005B1AAB42F2DCEBE7002504F11906F5E715
:1028AC002D2A00083E2A0008884210B501EB0204CC
:1028BC0002D98442234607D8431EA14208D011F8FE
:1028CC00012B03F8012FF8E7014602448A4200D19C
:1028DC0010BD13F8014D02F8014DF7E738B5002390
:1028EC00054D044608462B60FDF776FF431C02D1CC
:1028FC002B6803B1236038BDD8010020034610B506
:10290C00C9B202449342184601D1002003E0047876
:10291C0001338C42F6D110BD0A44914200F1FF33D1
:10292C0000D1704710B511F8014B914203F8014FDB
:10293C00F9D110BD2DE9F041804615460C4621B960
:10294C001146BDE8F041FFF739BC2AB9FFF7CCFBC3
:10295C0000242046BDE8F08100F01AF885420646B6
:10296C0002D8B5EB500FF4D829464046FFF726FCA9
:10297C0007460028ECD0B5422A46214628BF3246ED
:10298C00FFF7CAFF21464046FFF7AEFB3C46E0E7A7
:10299C0051F8043C181F002BBCBF0B58C0187047D3
:1029AC00F8B500BFF8BC08BC9E467047F8B500BF30
:0829BC00F8BC08BC9E46704700
:1029C4002564000002030405060708090A0B0C0D20
:1029D4000E0F1010000000000000000001020304AC
:1029E4000607080900000000000C01400100000077
:1029F400000C014002000000000C01400400000033
:102A0400000C014008000000000C01401000000010
:102A1400000C014020000000232D302B2000686CA6
:102A24004C006566674546470030313233343536ED
:102A34003738394142434445460030313233343526
:0C2A440036373839616263646566000053
:042A50003101000848
:042A54000D01000868
:102A580018000000713DAA3F2E0000000024F40079
:102A680010000000010000001C0000200000000011
:102A7800A0000020080100207001002000000000D4
:102A8800000000000000000000000000000000003E
:102A9800000000000000000000000000000000002E
:102AA800000000000000000000000000000000001E
:082AB800000000000000000016
:04000005080008B92E
:00000001FF
