:020000040800F2
:1000000000280020C115000879110008811100089E
:1000100089110008911100089911000800000000E2
:10002000000000000000000000000000A111000816
:10003000AD11000800000000B9110008C51100084A
:100040000916000809160008091600080916000814
:100050000916000809160008091600080916000804
:1000600009160008D1110008091600080916000831
:1000700009160008091600080916000809160008E4
:100080000916000809160008E11100080916000801
:1000900009160008091600080916000809160008C4
:1000A00009160008091600080916000809160008B4
:1000B000F5110008091600080000000009160008E4
:1000C00009160008000000000000000009160008E2
:1000D00000000000091600080916000800000000D2
:1000E000091600080916000809160008000000009B
:1000F0000000000000000000000000000000000000
:0C01000000000000000000005FF808F1A3
:1001100010B5054C237833B9044B13B10448AFF341
:1001200000800123237010BDD401002000000000D6
:10013000A46B000808B5034B1BB103490348AFF398
:10014000008008BD00000000D8010020A46B00085A
:10015000034613F8012B002AFBD1181A0138704707
:1001600081F0004102E000BF83F0004330B54FEA68
:1001700041044FEA430594EA050F08BF90EA020FD5
:100180001FBF54EA000C55EA020C7FEA645C7FEA68
:10019000655C00F0E2804FEA5454D4EB5555B8BF8B
:1001A0006D420CDD2C4480EA020281EA030382EAFC
:1001B000000083EA010180EA020281EA0303362D8E
:1001C00088BF30BD11F0004F4FEA01314FF4801C61
:1001D0004CEA113102D0404261EB410113F0004F73
:1001E0004FEA03334CEA133302D0524263EB43032A
:1001F00094EA050F00F0A780A4F10104D5F1200EC8
:100200000DDB02FA0EFC22FA05F2801841F1000122
:1002100003FA0EF2801843FA05F359410EE0A5F1F6
:1002200020050EF1200E012A03FA0EFC28BF4CF027
:10023000020C43FA05F3C01851EBE37101F00045DD
:1002400007D54FF0000EDCF1000C7EEB00006EEBEA
:100250000101B1F5801F1BD3B1F5001F0CD3490874
:100260005FEA30004FEA3C0C04F101044FEA4452CB
:1002700012F5800F80F09A80BCF1004F08BF5FEA52
:10028000500C50F1000041EB045141EA050130BD32
:100290005FEA4C0C404141EB0101013C28BFB1F544
:1002A000801FE9D291F0000F04BF01460020B1FA8F
:1002B00081F308BF2033A3F10B03B3F120020CDA62
:1002C0000C3208DD02F1140CC2F10C0201FA0CF040
:1002D00021FA02F10CE002F11402D8BFC2F1200CA5
:1002E00001FA02F120FA0CFCDCBF41EA0C0190405B
:1002F000E41AA2BF01EB0451294330BD6FEA0404A4
:100300001F3C1CDA0C340EDC04F11404C4F120028E
:1003100020FA04F001FA02F340EA030021FA04F3A0
:1003200045EA030130BDC4F10C04C4F1200220FAF7
:1003300002F001FA04F340EA0300294630BD21FA35
:1003400004F0294630BD94F0000F83F4801306BFFB
:1003500081F480110134013D4EE77FEA645C18BFEF
:100360007FEA655C29D094EA050F08BF90EA020F86
:1003700005D054EA000C04BF1946104630BD91EA7E
:10038000030F1EBF0021002030BD5FEA545C05D181
:100390004000494128BF41F0004130BD14F58004C0
:1003A0003CBF01F5801130BD01F0004545F0FE4134
:1003B00041F470014FF0000030BD7FEA645C1ABF69
:1003C000194610467FEA655C1CBF0B46024650EAA0
:1003D000013406BF52EA033591EA030F41F40021CC
:1003E00030BD00BF90F0000F04BF0021704730B552
:1003F0004FF4806404F132044FF000054FF0000127
:1004000050E700BF90F0000F04BF0021704730B5E7
:100410004FF4806404F1320410F0004548BF4042BC
:100420004FF000013EE700BF42004FEAE2014FEA11
:1004300031014FEA02701FBF12F07F4393F07F4FEC
:1004400081F06051704732F07F4208BF704793F0EF
:100450007F4F04BF41F40021704730B54FF4607402
:1004600001F0004521F000411CE700BF50EA010205
:1004700008BF704730B54FF000050AE050EA0102AE
:1004800008BF704730B511F0004502D5404261EB1E
:1004900041014FF4806404F132045FEA915C3FF45F
:1004A000D8AE4FF003025FEADC0C18BF03325FEAFC
:1004B000DC0C18BF033202EBDC02C2F1200300FAAD
:1004C00003FC20FA02F001FA03FE40EA0E0021FAD2
:1004D00002F11444BDE600BF70B54FF0FF0C4CF4C0
:1004E000E06C1CEA11541DBF1CEA135594EA0C0F72
:1004F00095EA0C0F00F0DEF82C4481EA030621EAAD
:100500004C5123EA4C5350EA013518BF52EA0335E7
:1005100041F4801143F4801338D0A0FB02CE4FF099
:100520000005E1FB02E506F00042E0FB03E54FF0C9
:100530000006E1FB03569CF0000F18BF4EF0010EC1
:10054000A4F1FF04B6F5007F64F5407404D25FEABD
:100550004E0E6D4146EB060642EAC62141EA555170
:100560004FEAC52040EA5E504FEACE2EB4F1FD0CB2
:1005700088BFBCF5E06F1ED8BEF1004F08BF5FEA30
:10058000500E50F1000041EB045170BD06F00046E2
:1005900046EA010140EA020081EA0301B4EB5C048F
:1005A000C2BFD4EB0C0541EA045170BD41F4801187
:1005B0004FF0000E013C00F3AB8014F1360FDEBFAC
:1005C000002001F0004170BDC4F10004203C35DA88
:1005D0000C341BDC04F11404C4F1200500FA05F30B
:1005E00020FA04F001FA05F240EA020001F00042AC
:1005F00021F0004110EBD37021FA04F642EB060122
:100600005EEA430E08BF20EAD37070BDC4F10C044B
:10061000C4F1200500FA04F320FA05F001FA04F20F
:1006200040EA020001F0004110EBD37041F10001FB
:100630005EEA430E08BF20EAD37070BDC4F1200506
:1006400000FA05F24EEA020E20FA04F301FA05F26E
:1006500043EA020321FA04F001F0004121FA04F216
:1006600020EA020000EBD3705EEA430E08BF20EAE6
:10067000D37070BD94F0000F0FD101F00046400020
:1006800041EB010111F4801F08BF013CF7D041EAA2
:10069000060195F0000F18BF704703F000465200A6
:1006A00043EB030313F4801F08BF013DF7D043EA77
:1006B0000603704794EA0C0F0CEA135518BF95EA2D
:1006C0000C0F0CD050EA410618BF52EA4306D1D1B4
:1006D00081EA030101F000414FF0000070BD50EAD3
:1006E000410606BF1046194652EA430619D094EA5D
:1006F0000C0F02D150EA013613D195EA0C0F05D147
:1007000052EA03361CBF104619460AD181EA03019A
:1007100001F0004141F0FE4141F470014FF0000052
:1007200070BD41F0FE4141F4780170BD70B54FF0ED
:10073000FF0C4CF4E06C1CEA11541DBF1CEA13556D
:1007400094EA0C0F95EA0C0F00F0A7F8A4EB05044F
:1007500081EA030E52EA03354FEA013100F0888046
:100760004FEA03334FF0805545EA131343EA12630F
:100770004FEA022245EA111545EA10654FEA0026C4
:100780000EF000419D4208BF964244F1FD0404F57D
:10079000407402D25B084FEA3202B61A65EB0305D9
:1007A0005B084FEA32024FF480104FF4002CB6EB96
:1007B000020E75EB030E22BFB61A754640EA0C0016
:1007C0005B084FEA3202B6EB020E75EB030E22BF56
:1007D000B61A754640EA5C005B084FEA3202B6EB97
:1007E000020E75EB030E22BFB61A754640EA9C0056
:1007F0005B084FEA3202B6EB020E75EB030E22BF26
:10080000B61A754640EADC0055EA060E18D04FEAE3
:10081000051545EA16754FEA06164FEAC30343EA83
:1008200052734FEAC2025FEA1C1CC0D111F4801F50
:100830000BD141EA00014FF000004FF0004CB6E749
:1008400011F4801F04BF01430020B4F1FD0C88BFE8
:10085000BCF5E06F3FF6AFAEB5EB030C04BFB6EBF3
:10086000020C5FEA500C50F1000041EB045170BDE6
:100870000EF0004E4EEA113114EB5C04C2BFD4EB13
:100880000C0541EA045170BD41F480114FF0000E97
:10089000013C90E645EA060E8DE60CEA135594EA13
:1008A0000C0F08BF95EA0C0F3FF43BAF94EA0C0F16
:1008B0000AD150EA01347FF434AF95EA0C0F7FF48B
:1008C00025AF104619462CE795EA0C0F06D152EADF
:1008D00003353FF4FDAE1046194622E750EA4106C3
:1008E00018BF52EA43067FF4C5AE50EA41047FF4D4
:1008F0000DAF52EA43057FF4EBAE12E74FF0FF3C39
:1009000006E000BF4FF0010C02E000BF4FF0010C09
:100910004DF804CD4FEA410C7FEA6C5C4FEA430C82
:1009200018BF7FEA6C5C1BD001B050EA410C0CBFD1
:1009300052EA430C91EA030F02BF90EA020F002033
:10094000704710F1000F91EA030F58BF994208BF9A
:1009500090422CBFD8176FEAE37040F00100704757
:100960004FEA410C7FEA6C5C02D150EA013C07D1AE
:100970004FEA430C7FEA6C5CD6D152EA033CD3D0F9
:100980005DF8040B704700BF8446104662468C46F3
:100990001946634600E000BF01B5FFF7B7FF002826
:1009A00048BF10F1000F01BD4DF808EDFFF7F4FF4F
:1009B0000CBF012000205DF808FB00BF4DF808EDDA
:1009C000FFF7EAFF34BF012000205DF808FB00BFFD
:1009D0004DF808EDFFF7E0FF94BF012000205DF81F
:1009E00008FB00BF4DF808EDFFF7CEFF94BF0120D4
:1009F00000205DF808FB00BF4DF808EDFFF7C4FFCD
:100A000034BF012000205DF808FB00BF4FEA410C15
:100A10007FEA6C5C02D150EA013C0AD14FEA430CF8
:100A20007FEA6C5C02D152EA033C02D14FF0000035
:100A300070474FF0010070474FEA410212F5001273
:100A400015D211D56FF47873B3EB625212D94FEA15
:100A5000C12343F0004343EA505311F0004F23FAFF
:100A600002F018BF404270474FF00000704750EA54
:100A7000013005D111F0004008BF6FF00040704711
:100A80004FF00000704700BF80F0004002E000BF60
:100A900081F0004142001FBF5FEA410392EA030F69
:100AA0007FEA226C7FEA236C6AD04FEA1262D2EBB3
:100AB0001363C1BFD218414048404140B8BF5B42B8
:100AC000192B88BF704710F0004F40F4000020F051
:100AD0007F4018BF404211F0004F41F4000121F067
:100AE0007F4118BF494292EA030F3FD0A2F10102B1
:100AF00041FA03FC10EB0C00C3F1200301FA03F1EF
:100B000000F0004302D5494260EB4000B0F5000F11
:100B100013D3B0F1807F06D340084FEA310102F1D0
:100B20000102FE2A51D2B1F1004F40EBC25008BF82
:100B300020F0010040EA03007047490040EB00004C
:100B4000013A28BFB0F5000FEDD2B0FA80FCACF14D
:100B5000080CB2EB0C0200FA0CF0AABF00EBC2507A
:100B600052421843BCBFD0401843704792F0000F68
:100B700081F4000106BF80F400000132013BB5E7BB
:100B80004FEA41037FEA226C18BF7FEA236C21D031
:100B900092EA030F04D092F0000F08BF0846704796
:100BA00090EA010F1CBF0020704712F07F4F04D164
:100BB000400028BF40F00040704712F100723CBF77
:100BC00000F50000704700F0004343F0FE4040F4A1
:100BD000000070477FEA226216BF08467FEA23635F
:100BE0000146420206BF5FEA412390EA010F40F44A
:100BF000800070474FF0000304E000BF10F0004396
:100C000048BF40425FEA000C08BF704743F096437C
:100C100001464FF000001CE050EA010208BF704797
:100C20004FF000030AE000BF50EA010208BF70471E
:100C300011F0004302D5404261EB41015FEA010C33
:100C400002BF84460146002043F0B64308BFA3F12B
:100C50008053A3F50003BCFA8CF2083AA3EBC2530D
:100C600010DB01FA02FC634400FA02FCC2F120022C
:100C7000BCF1004F20FA02F243EB020008BF20F063
:100C80000100704702F1200201FA02FCC2F12002C9
:100C900050EA4C0021FA02F243EB020008BF20EABE
:100CA000DC70704780B584B000AF3B1D00221A6035
:100CB0005A609A60184B194A1A60174B00229A60C2
:100CC000154B00221A73144B00221A75124B4FF465
:100CD0006022DA61104B00225A600F4B01221A6128
:100CE0000D4800F019FD0346002B01D000F00CFA6E
:100CF00000237B600123BB600023FB603B1D194682
:100D0000054800F06FFF0346002B01D000F0FCF90E
:100D100000BF1037BD4680BDF00100200024014017
:100D200080B588B000AF786007F1100300221A6028
:100D30005A609A60DA607B681B68184A934229D12E
:100D4000174B9B69164A43F400739361144B9B69DC
:100D500003F40073FB60FB68114B9B69104A43F07E
:100D6000040393610E4B9B6903F00403BB60BB68F3
:100D700001233B6103237B6107F1100319460948F6
:100D800001F0CCF900220021122001F090F912208C
:100D900001F0A9F900BF2037BD4680BD0024014005
:100DA000001002400008014080B588B000AF07F194
:100DB000100300221A605A609A60DA60304B9B6917
:100DC0002F4A43F0200393612D4B9B6903F02003CE
:100DD000FB60FB682A4B9B69294A43F0040393613B
:100DE000274B9B6903F00403BB60BB68244B9B69E2
:100DF000234A43F008039361214B9B6903F00803E6
:100E00007B607B68002204211E4801F003FB012265
:100E10007F211D4801F0FEFA04233B6101237B6121
:100E20000023BB610223FB6107F11003194615483B
:100E300001F074F908233B61144B7B610023BB6113
:100E400007F1100319460F4801F068F97F233B6151
:100E500001237B610023BB610123FB6107F11003C8
:100E60001946094801F05AF900220021092001F031
:100E70001EF9092001F037F900BF2037BD4680BDBB
:100E80000010024000080140000C01400000111059
:100E900080B582B000AF0346FB80FB88082B09D1E8
:100EA00001220421054801F0B5FA0022042103487B
:100EB00001F0B0FA00BF0837BD4680BD0008014010
:100EC00080B582B000AF78607B680A4A93420CD14B
:100ED000094B01221A60074800F0ACFD0346184692
:100EE000FFF788FE0346054A136000BF0837BD467A
:100EF00080BD00BFF001002020020020240200205D
:100F000080B500AF00F082FB00F0A6F8FFF74CFFC1
:100F1000FFF74AFF00F06EFA00F0DCFAFFF7C2FEBE
:100F2000FFF742FF00F066FA00F0D4FAFFF7BAFECE
:100F3000FFF73AFF00F05EFA00F0CCFAFFF7B2FEDE
:100F4000FFF732FF00F056FA00F0C4FAFFF7AAFEEE
:100F5000FFF72AFF00F04EFA00F0BCFAFFF7A2FEFE
:100F6000FFF722FF00F046FA00F0B4FAFFF79AFE0E
:100F7000FFF71AFF00F03EFA00F0ACFAFFF714FF9B
:100F800000F038FA00F0A6FAFFF70EFF00F032FA90
:100F900000F0A0FAFFF708FF00F02CFA00F09AFA30
:100FA000FFF702FF00F026FAFFF7FEFE00F022FA3C
:100FB000FFF7FAFE00F01EFAFFF7F6FE00F01AFA4D
:100FC000FFF7F2FE00F016FAFFF7EEFE00F012FA5D
:100FD000FFF7EAFE00F00EFAFFF7E6FE00F00AFA6D
:100FE000FFF7E2FE00F006FAFFF7DEFE00F002FA7D
:100FF000FFF7DAFE002002F0B7FE002002F034FE18
:10100000114800F061FCFFF7CFFE104801F02DFF02
:10101000FFF7CAFEC82310220D490E4802F0D3FA8A
:10102000002002F0A1FE002002F01EFE012201219C
:10103000002002F059FE0649002003F007F9642061
:1010400000F046FB00BFE5E7F00100203C02002075
:10105000280200207C02002080B594B000AF07F188
:10106000280328220021184603F071FE07F114031B
:1010700000221A605A609A60DA601A613B1D0022F1
:101080001A605A609A60DA600123BB624FF48033C1
:10109000FB6200233B630123BB6302237B644FF4A9
:1010A0008033BB640023FB6407F12803184601F07A
:1010B000E1F90346002B01D000F026F80F237B61F5
:1010C0000223BB610023FB6100233B6200237B62A0
:1010D00007F114030021184601F04EFC0346002BD3
:1010E00001D000F011F802237B600023FB603B1D60
:1010F000184601F0D9FD0346002B01D000F004F89A
:1011000000BF5037BD4680BD80B400AF72B600BF8F
:1011100000BFFDE780B485B000AF154B9B69144A52
:1011200043F001039361124B9B6903F00103BB6021
:10113000BB680F4BDB690E4A43F08053D3610C4B05
:10114000DB6903F080537B607B680A4B5B68FB6064
:10115000FB6823F0E063FB60FB6843F08063FB60A7
:10116000044AFB68536000BF1437BD4680BC70471B
:10117000001002400000014080B400AF00BFFDE756
:1011800080B400AF00BFFDE780B400AF00BFFDE753
:1011900080B400AF00BFFDE780B400AF00BFFDE743
:1011A00080B400AF00BFBD4680BC704780B400AFC4
:1011B00000BFBD4680BC704780B400AF00BFBD46D5
:1011C00080BC704780B500AF00F066FA00BF80BDFC
:1011D00080B500AF082001F035F900BF80BD0000E8
:1011E00080B500AF024800F031FC00BF80BD00BFF9
:1011F000F001002080B500AF024801F059FE00BFA9
:1012000080BD00BF3C02002080B400AF012318461F
:10121000BD4680BC704780B582B000AF7860396051
:1012200003F0E8FD034616221A604FF0FF3318461C
:101230000837BD4680BD80B582B000AF78604FF002
:10124000FF317868FFF7E7FF00BFFDE780B586B0A4
:1012500000AFF860B9607A6000237B610AE0AFF309
:1012600000800146BB685A1CBA60CAB21A707B691A
:1012700001337B617A697B689A42F0DB7B681846B0
:101280001837BD4680BD80B586B000AFF860B96044
:101290007A6000237B6109E0BB685A1CBA601B7846
:1012A0001846AFF300807B6901337B617A697B6804
:1012B0009A42F1DB7B6818461837BD4680BD80B482
:1012C00083B000AF78604FF0FF3318460C37BD464F
:1012D00080BC704780B483B000AF786039603B68F1
:1012E0004FF400525A60002318460C37BD4680BCAC
:1012F000704780B483B000AF7860012318460C3784
:10130000BD4680BC704780B485B000AFF860B9605E
:101310007A60002318461437BD4680BC7047000031
:1013200080B586B000AF7860144A154BD31A7B6144
:101330007B693B61134B1B68002B02D1114B124A96
:101340001A60104B1A687B6813443A699A4207D2B4
:1013500003F050FD03460C221A604FF0FF3309E002
:10136000084B1B68FB60074B1A687B681344054AEF
:101370001360FB6818461837BD4680BD0028002062
:1013800000040000380200201004002080B400AFE8
:10139000154B1B68144A43F001031360124B5A6843
:1013A0001149124B13404B600F4B1B680E4A23F040
:1013B000847323F4803313600B4B1B680A4A23F4B5
:1013C00080231360084B5B68074A23F4FE035360D5
:1013D000054B4FF41F029A60054B4FF000629A6074
:1013E00000BFBD4680BC7047001002400000FFF8FF
:1013F00000ED00E080B586B000AF07F108030022E1
:101400001A605A609A60DA603B4600221A605A609D
:101410001D4B4FF080421A601B4B01225A601A4B41
:1014200000229A60184B46F28F52DA60164B002267
:101430001A61154B00229A61134801F0EBFC034638
:10144000002B01D0FFF760FE4FF48053BB6007F123
:10145000080319460C4801F033FE0346002B01D067
:10146000FFF752FE00233B6000237B603B4619469A
:10147000054802F005F80346002B01D0FFF744FEB3
:1014800000BF1837BD4680BD3C02002080B584B047
:1014900000AF78607B681B68B3F1804F13D10C4BB1
:1014A000DB690B4A43F00103D361094BDB6903F0AD
:1014B0000103FB60FB68002200211C2000F0F7FD07
:1014C0001C2000F010FE00BF1037BD4680BD00BFDD
:1014D0000010024080B500AF114B124A1A60104B49
:1014E0004FF4E1325A600E4B00229A600C4B0022FE
:1014F000DA600B4B00221A61094B0C225A61084B2F
:1015000000229A61064B0022DA61054802F00EF8CB
:101510000346002B01D0FFF7F7FD00BF80BD00BFE1
:101520007C0200200038014080B588B000AF7860B0
:1015300007F1100300221A605A609A60DA607B6833
:101540001B681C4A934231D11B4B9B691A4A43F4D6
:1015500080439361184B9B6903F48043FB60FB68F5
:10156000154B9B69144A43F004039361124B9B692A
:1015700003F00403BB60BB684FF400733B610223BC
:101580007B610323FB6107F1100319460B4800F050
:10159000C5FD4FF480633B6100237B610023BB6189
:1015A00007F110031946054800F0B8FD00BF2037C9
:1015B000BD4680BD003801400010024000080140D7
:1015C000002103E00B4B5B58435004310A480B4B9E
:1015D00042189A42F6D30A4A02E0002342F8043B3A
:1015E000084B9A42F9D3FFF7D1FE03F009FCFFF74D
:1015F00087FC7047A06F000800000020D401002085
:10160000D40100200C040020FEE7000080B500AFEC
:10161000084B1B68074A43F010031360032000F0D7
:101620003BFD0F2000F008F8FFF774FD002318467B
:1016300080BD00BF0020024080B582B000AF78605E
:10164000124B1A68124B1B7819464FF47A73B3FB8E
:10165000F1F3B2FBF3F3184600F053FD0346002B01
:1016600001D001230EE07B680F2B0AD80022796895
:101670004FF0FF3000F01BFD064A7B68136000232B
:1016800000E0012318460837BD4680BD0000002059
:10169000080000200400002080B400AF054B1B7838
:1016A0001A46054B1B681344034A136000BFBD462E
:1016B00080BC704708000020BC02002080B400AF4E
:1016C000024B1B681846BD4680BC7047BC02002018
:1016D00080B584B000AF7860FFF7F0FFB8607B683A
:1016E000FB60FB68B3F1FF3F05D00A4B1B781A463D
:1016F000FB681344FB6000BFFFF7E0FF0246BB68D6
:10170000D31AFA689A42F7D800BF00BF1037BD4617
:1017100080BD00BF0800002080B586B000AF7860B3
:101720000023FB7500233B610023BB600023FB60AB
:101730007B68002B01D10123BEE07B689B68002BF6
:101740007B689B6A002B09D17B680022DA627B6888
:10175000002283F824207868FFF7E2FA786800F026
:101760008BFB0346FB757B689B6A03F01003002B21
:1017700040F09980FB7D002B40F095807B689B6A50
:1017800023F4885323F0020343F002027B689A6239
:101790007B685A687B68DB691A437B681B7B5B004C
:1017A0001343BA681343BB607B689B68B3F5807FC3
:1017B00003D07B689B68012B02D14FF4807300E05B
:1017C00000233A6913433B617B681B7D012B19D1D0
:1017D0007B681B7B002B09D17B689B69013B5A030B
:1017E0003B69134343F400633B610BE07B689B6AF6
:1017F00043F020027B689A627B68DB6A43F0010257
:101800007B68DA627B681B685B6823F469417B68EC
:101810001B683A690A435A607B681B689A68284BC0
:1018200013407A681268B9680B4393607B689B68C1
:10183000B3F5807F03D07B689B68012B04D17B6864
:101840001B69013B1B05FB607B681B68DB6A23F49B
:1018500070017B681B68FA680A43DA627B681B6860
:101860009A68184B1340BA689A420BD17B680022E1
:10187000DA627B689B6A23F0030343F001027B6812
:101880009A6218E07B689B6A23F0120343F010020F
:101890007B689A627B68DB6A43F001027B68DA62EC
:1018A0000123FB7507E07B689B6A43F010027B68AD
:1018B0009A620123FB75FB7D18461837BD4680BD33
:1018C000FDF7E1FFFE0E1FFF80B584B000AF78602A
:1018D0000023FB737B6893F82430012B01D1022392
:1018E000A0E07B68012283F82420786800F072FA77
:1018F0000346FB73FB7B002B40F08F807B689B6A69
:1019000023F4706323F0010343F480727B689A62CE
:101910007B681B68454A934205D1454B5B6803F4DD
:101920007023002B15D17B689B6A23F480127B689F
:101930009A627B681B685B6803F48063002B26D087
:101940007B689B6A23F4405343F480527B689A621D
:101950001DE07B689B6A43F480127B689A627B6817
:101960001B68334A934204D07B681B682F4A93421A
:101970000DD12F4B5B6803F48063002B07D07B688D
:101980009B6A23F4405343F480527B689A627B68DD
:101990009B6A03F48053002B06D07B68DB6A23F03C
:1019A00006027B68DA6202E07B680022DA627B680A
:1019B000002283F824207B681B686FF002021A6003
:1019C0007B681B685A687B681B6842F020025A607B
:1019D0007B681B689B6803F46023B3F5602F13D109
:1019E0007B681B68114A934205D1114B5B6803F475
:1019F0007023002B08D17B681B689A687B681B6882
:101A000042F4A0029A600CE07B681B689A687B68CD
:101A10001B6842F480129A6003E07B68002283F81E
:101A20002420FB7B18461037BD4680BD00280140AE
:101A30000024014080B483B000AF78607B681B68ED
:101A4000DB6C18460C37BD4680BC704780B582B051
:101A500000AF78607B681B685B6803F02003202B75
:101A600040D17B681B681B6803F00203022B39D14D
:101A70007B689B6A03F01003002B05D17B689B6A8F
:101A800043F400727B689A627B681B689B6803F46E
:101A90006023B3F5602F1DD17B681B7B002B19D110
:101AA0007B681B685A687B681B6822F020025A60BA
:101AB0007B689B6A23F480727B689A627B689B6A6E
:101AC00003F48053002B05D17B689B6A43F001022D
:101AD0007B689A627868FFF7F3F97B681B686FF0A0
:101AE00012021A607B681B685B6803F08003802B1E
:101AF0004FD17B681B681B6803F00403042B48D19B
:101B00007B689B6A03F01003002B05D17B689B6AFE
:101B100043F400527B689A627B681B689B6803F4FD
:101B2000E043B3F5E04F12D07B681B685B6803F4B9
:101B30008063002B25D17B681B689B6803F46023BE
:101B4000B3F5602F1DD17B681B7B002B19D17B68FF
:101B50001B685A687B681B6822F080025A607B68A9
:101B60009B6A23F480527B689A627B689B6A03F4C9
:101B70008073002B05D17B689B6A43F001027B6870
:101B80009A62786800F0B2F97B681B686FF00C020B
:101B90001A607B681B685B6803F04003402B14D11C
:101BA0007B681B681B6803F00103012B0DD17B6868
:101BB0009B6A43F480327B689A62786800F009F887
:101BC0007B681B686FF001021A6000BF0837BD46D2
:101BD00080BD80B483B000AF786000BF0C37BD46D5
:101BE00080BC704780B485B000AF78603960002356
:101BF000FB730023BB607B6893F82430012B01D179
:101C00000223DCE07B68012283F824203B685B68C8
:101C1000062B1CD87B681B68596B3B685A681346B7
:101C20009B001344053B1F2202FA03F3DB431940D8
:101C30003B6818683B685A6813469B001344053B91
:101C400000FA03F27B681B680A435A633CE03B6876
:101C50005B680C2B1CD87B681B68196B3B685A6847
:101C600013469B001344233B1F2202FA03F3DB437A
:101C700019403B6818683B685A6813469B00134438
:101C8000233B00FA03F27B681B680A431A631BE0DC
:101C90007B681B68D96A3B685A6813469B001344EB
:101CA000413B1F2202FA03F3DB4319403B681868EB
:101CB0003B685A6813469B001344413B00FA03F209
:101CC0007B681B680A43DA623B681B68092B1CD9D6
:101CD0007B681B68D9683B681A6813465B0013442D
:101CE0001E3B072202FA03F3DB4319403B68986866
:101CF0003B681A6813465B0013441E3B00FA03F26C
:101D00007B681B680A43DA6019E07B681B68196905
:101D10003B681A6813465B001344072202FA03F378
:101D2000DB4319403B6898683B681A6813465B00C0
:101D3000134400FA03F27B681B680A431A613B688C
:101D40001B68102B03D03B681B68112B32D17B68BA
:101D50001B681D4A934225D17B681B689B6803F46E
:101D60000003002B26D17B681B689A687B681B6880
:101D700042F400029A603B681B68102B1AD1134B87
:101D80001B68134AA2FB03239A0C13469B001344BF
:101D90005B00BB6002E0BB68013BBB60BB68002B23
:101DA000F9D107E07B689B6A43F020027B689A6266
:101DB0000123FB737B68002283F82420FB7B1846F9
:101DC0001437BD4680BC704700240140000000204D
:101DD00083DE1B4380B584B000AF78600023FB60D6
:101DE0000023BB607B681B689B6803F00103012B29
:101DF00039D07B681B689A687B681B6842F00102D7
:101E00009A601B4B1B681B4AA2FB03239B0CBB6005
:101E100002E0BB68013BBB60BB68002BF9D1FFF758
:101E20004DFCF86018E0FFF749FC0246FB68D31A46
:101E3000022B11D97B689B6A43F010027B689A627F
:101E40007B68DB6A43F001027B68DA627B68002210
:101E500083F82420012307E07B681B689B6803F05C
:101E60000103012BDFD1002318461037BD4680BD8A
:101E70000000002083DE1B4380B584B000AF786093
:101E80000023FB607B681B689B6803F00103012B48
:101E900027D17B681B689A687B681B6822F0010267
:101EA0009A60FFF70BFCF86014E0FFF707FC0246AE
:101EB000FB68D31A022B0DD97B689B6A43F0100292
:101EC0007B689A627B68DB6A43F001027B68DA62B6
:101ED000012307E07B681B689B6803F00103012B6B
:101EE000E3D0002318461037BD4680BD80B483B0D0
:101EF00000AF786000BF0C37BD4680BC7047000063
:101F000080B485B000AF78607B6803F00703FB60A6
:101F10000C4BDB68BB60BA684FF6FF031340BB6035
:101F2000FB681A02BB68134343F0BF6343F40033FA
:101F3000BB60044ABB68D36000BF1437BD4680BC99
:101F4000704700BF00ED00E080B400AF044BDB68D9
:101F50001B0A03F007031846BD4680BC704700BF4C
:101F600000ED00E080B483B000AF0346FB7197F949
:101F70000730002B0BDBFB7903F01F02064997F9B2
:101F800007305B09012000FA02F241F8232000BF6C
:101F90000C37BD4680BC704700E100E080B483B0E0
:101FA00000AF03463960FB7197F90730002B0ADB5D
:101FB0003B68DAB20C4997F907301201D2B20B44F0
:101FC00083F800230AE03B68DAB20849FB7903F0A2
:101FD0000F03043B1201D2B20B441A7600BF0C3738
:101FE000BD4680BC704700BF00E100E000ED00E0AE
:101FF00080B489B000AFF860B9607A60FB6803F024
:102000000703FB61FB69C3F10703042B28BF04230B
:10201000BB61FB690433062B02D9FB69033B00E07B
:1020200000237B614FF0FF32BB6902FA03F3DA430E
:10203000BB681A407B699A404FF0FF317B6901FA17
:1020400003F3D9437B680B40134318462437BD463E
:1020500080BC704780B582B000AF78607B68013B80
:10206000B3F1807F01D301230FE00A4A7B68013B73
:1020700053600F214FF0FF30FFF790FF054B002218
:102080009A60044B07221A60002318460837BD46A1
:1020900080BD00BF10E000E080B582B000AF786086
:1020A0007868FFF72DFF00BF0837BD4680BD80B5BB
:1020B00086B000AF0346B9607A60FB7300237B6192
:1020C000FFF742FF78617A68B9687869FFF790FF97
:1020D000024697F90F3011461846FFF75FFF00BF21
:1020E0001837BD4680BD80B582B000AF0346FB7196
:1020F00097F907301846FFF735FF00BF0837BD4690
:1021000080BD80B582B000AF78607868FFF7A2FF2D
:10211000034618460837BD4680BD000080B48BB02A
:1021200000AF7860396000237B6200233B6261E18D
:1021300001227B6A02FA03F3FB613B681B68FA69C0
:102140001340BB61BA69FB699A4240F050813B6819
:102150005B68974A93425ED0954A934275D8954AF8
:10216000934258D0934A93426FD8934A934252D0A5
:10217000914A934269D8914A93424CD08F4A9342F4
:1021800063D88F4A934246D08D4A93425DD8122B32
:102190002AD8122B59D801A252F823F0172200088E
:1021A000F121000803220008452200084B22000804
:1021B0004B2200084B2200084B2200084B2200084B
:1021C0004B2200084B2200084B2200084B2200083B
:1021D0004B2200084B2200084B2200084B2200082B
:1021E000F92100080D220008764A934213D02CE012
:1021F0003B68DB683B6229E03B68DB6804333B6299
:1022000024E03B68DB6808333B621FE03B68DB6827
:102210000C333B621AE03B689B68002B02D104231D
:102220003B6213E03B689B68012B05D108233B62AE
:102230007B68FA691A6109E008233B627B68FA69E6
:102240005A6103E000233B6200E000BFBB69FF2B43
:1022500001D87B6801E07B6804337B61BB69FF2B9D
:1022600002D87B6A9B0002E07B6A083B9B003B61D3
:102270007B691A680F213B6901FA03F3DB431A40BB
:10228000396A3B6901FA03F31A437B691A603B68B8
:102290005B6803F08053002B00F0A9804A4B9B69D8
:1022A000494A43F001039361474B9B6903F00103E3
:1022B000BB60BB68454A7B6A9B08023352F82330F7
:1022C000FB607B6A03F003039B000F2202FA03F317
:1022D000DB43FA681340FB607B683D4A93420DD0B4
:1022E0007B683C4A934207D07B683B4A934201D1CA
:1022F000022304E0032302E0012300E000237A6AC2
:1023000002F0030292009340FA681343FB602F49E6
:102310007B6A9B080233FA6841F823203B685B68BC
:1023200003F48033002B06D02C4B1A682B49BB6971
:1023300013430B6006E0294B1A68BB69DB4327494E
:1023400013400B603B685B6803F40033002B06D03E
:10235000224B5A682149BB6913434B6006E01F4B6F
:102360005A68BB69DB431D4913404B603B685B689F
:1023700003F48013002B06D0184B9A681749BB69E9
:1023800013438B6006E0154B9A68BB69DB43134926
:1023900013408B603B685B6803F40013002B1FD075
:1023A0000E4BDA680D49BB691343CB601FE000BFD9
:1023B0000000321000003110000022100000211037
:1023C0000000121000001110001002400000014037
:1023D00000080140000C01400010014000040140D1
:1023E0000B4BDA68BB69DB4309491340CB607B6A5E
:1023F00001337B623B681A687B6A22FA03F3002B85
:102400007FF496AE00BF00BF2C37BD4680BC70473E
:102410000004014080B483B000AF78600B467B803D
:1024200013467B707B78002B03D07A887B681A6117
:1024300003E07B881A047B681A6100BF0C37BD4635
:1024400080BC704780B582B000AF0346FB80084B6C
:102450005A69FB881340002B06D0054AFB8853615C
:10246000FB881846FEF714FD00BF0837BD4680BD47
:102470000004014080B586B000AF78607B68002B17
:1024800001D1012372E27B681B6803F00103002B7A
:1024900000F08780924B5B6803F00C03042B0CD098
:1024A0008F4B5B6803F00C03082B12D18C4B5B68DD
:1024B00003F48033B3F5803F0BD1894B1B6803F4E1
:1024C0000033002B6CD07B685B68002B68D1012344
:1024D0004CE27B685B68B3F5803F06D1804B1B689C
:1024E0007F4A43F4803313602EE07B685B68002BE7
:1024F0000CD17B4B1B687A4A23F480331360784BF2
:102500001B68774A23F4802313601DE07B685B68B7
:10251000B3F5A02F0CD1724B1B68714A43F4802392
:1025200013606F4B1B686E4A43F4803313600BE0FB
:102530006B4B1B686A4A23F480331360684B1B683B
:10254000674A23F4802313607B685B68002B13D0F9
:10255000FFF7B4F8386108E0FFF7B0F802463B69CE
:10256000D31A642B01D9032300E25D4B1B6803F4EB
:102570000033002BF0D014E0FFF7A0F8386108E03A
:10258000FFF79CF802463B69D31A642B01D9032359
:10259000ECE1534B1B6803F40033002BF0D100E057
:1025A00000BF7B681B6803F00203002B63D04C4B19
:1025B0005B6803F00C03002B0BD0494B5B6803F006
:1025C0000C03082B1CD1464B5B6803F48033002BB3
:1025D00016D1434B1B6803F00203002B05D07B6828
:1025E0001B69012B01D00123C0E13D4B1B6823F087
:1025F000F8027B685B69DB00394913430B603AE002
:102600007B681B69002B20D0364B01221A60FFF734
:1026100055F8386108E0FFF751F802463B69D31AD4
:10262000022B01D90323A1E12D4B1B6803F0020308
:10263000002BF0D02A4B1B6823F0F8027B685B6903
:10264000DB00274913430B6015E0264B00221A607C
:10265000FFF734F8386108E0FFF730F802463B69CD
:10266000D31A022B01D9032380E11D4B1B6803F011
:102670000203002BF0D17B681B6803F00803002BDA
:102680003AD07B689B69002B19D0174B01221A6046
:10269000FFF714F8386108E0FFF710F802463B69CD
:1026A000D31A022B01D9032360E10D4B5B6A03F0BF
:1026B0000203002BF0D0012000F0D8FA1CE00A4BF6
:1026C00000221A60FEF7FAFF38610FE0FEF7F6FF0E
:1026D00002463B69D31A022B08D9032346E100BF07
:1026E000001002400000424280044242924B5B6A6A
:1026F00003F00203002BE9D17B681B6803F004039D
:10270000002B00F0A6800023FB758B4BDB6903F0E8
:102710008053002B0DD1884BDB69874A43F08053EF
:10272000D361854BDB6903F08053BB60BB68012339
:10273000FB75824B1B6803F48073002B18D17F4B11
:102740001B687E4A43F480731360FEF7B7FF38615D
:1027500008E0FEF7B3FF02463B69D31A642B01D9A8
:10276000032303E1754B1B6803F48073002BF0D047
:102770007B68DB68012B06D16F4B1B6A6E4A43F006
:10278000010313622DE07B68DB68002B0CD16A4BE0
:102790001B6A694A23F001031362674B1B6A664A8E
:1027A00023F0040313621CE07B68DB68052B0CD16B
:1027B000614B1B6A604A43F0040313625E4B1B6A61
:1027C0005D4A43F0010313620BE05B4B1B6A5A4AFC
:1027D00023F001031362584B1B6A574A23F004038A
:1027E00013627B68DB68002B15D0FEF767FF38614A
:1027F0000AE0FEF763FF02463B69D31A41F28832D2
:10280000934201D90323B1E04B4B1B6A03F002034F
:10281000002BEED014E0FEF751FF38610AE0FEF71E
:102820004DFF02463B69D31A41F28832934201D9E7
:1028300003239BE0404B1B6A03F00203002BEED105
:10284000FB7D012B05D13C4BDB693B4A23F08053D8
:10285000D3617B68DB69002B00F08780364B5B68B7
:1028600003F00C03082B61D07B68DB69022B46D197
:10287000334B00221A60FEF721FF386108E0FEF7B3
:102880001DFF02463B69D31A022B01D903236DE0D9
:10289000294B1B6803F00073002BF0D17B681B6A87
:1028A000B3F5803F08D1244B5B6823F400327B688A
:1028B0009B68214913434B601F4B5B6823F47412E0
:1028C0007B68196A7B685B6A0B431B4913434B6047
:1028D0001B4B01221A60FEF7F1FE386108E0FEF79B
:1028E000EDFE02463B69D31A022B01D903233DE0DA
:1028F000114B1B6803F00073002BF0D035E0104B38
:1029000000221A60FEF7DAFE386108E0FEF7D6FE14
:1029100002463B69D31A022B01D9032326E0064B5A
:102920001B6803F00073002BF0D11EE07B68DB69AD
:10293000012B07D1012319E0001002400070004074
:10294000600042420B4B5B68FB60FB6803F4803223
:102950007B681B6A9A4206D1FB6803F470127B689D
:102960005B6A9A4201D0012300E000231846183721
:10297000BD4680BD0010024080B584B000AF7860D5
:1029800039607B68002B01D10123D0E06A4B1B68C2
:1029900003F007033A689A4210D9674B1B6823F08B
:1029A000070265493B6813430B60634B1B6803F0E8
:1029B00007033A689A4201D00123B8E07B681B689C
:1029C00003F00203002B20D07B681B6803F0040394
:1029D000002B05D0594B5B68584A43F4E0635360C1
:1029E0007B681B6803F00803002B05D0534B5B6822
:1029F000524A43F460535360504B5B6823F0F0023B
:102A00007B689B684D4913434B607B681B6803F0F0
:102A10000103002B40D07B685B68012B07D1474B3B
:102A20001B6803F40033002B15D101237FE07B6882
:102A30005B68022B07D1414B1B6803F00073002B2E
:102A400009D1012373E03D4B1B6803F00203002B07
:102A500001D101236BE0394B5B6823F003027B68F3
:102A60005B68364913434B60FEF728FEF8600AE0C6
:102A7000FEF724FE0246FB68D31A41F288329342E5
:102A800001D9032353E02D4B5B6803F00C027B68F4
:102A90005B689B009A42EBD1274B1B6803F007034E
:102AA0003A689A4210D2244B1B6823F0070222494D
:102AB0003B6813430B60204B1B6803F007033A6825
:102AC0009A4201D0012332E07B681B6803F00403C3
:102AD000002B08D0194B5B6823F4E0627B68DB684D
:102AE000164913434B607B681B6803F00803002BF7
:102AF00009D0124B5B6823F460527B681B69DB00D2
:102B00000E4913434B6000F021F802460B4B5B6803
:102B10001B0903F00F030A49CB5C22FA03F3094AAD
:102B20001360094B1B681846FEF786FD0023184604
:102B30001037BD4680BD00BF00200240001002409B
:102B4000D06B0008000000200400002090B48AB080
:102B500000AF294B3C1D0FCB84E80F0040F201234E
:102B60003B800023FB610023BB6100237B620023C9
:102B70007B6100233B62214B5B68FB61FB6903F0D7
:102B80000C03042B02D0082B03D02BE01C4B3B6220
:102B90002BE0FB699B0C03F00F0328333B4413F835
:102BA000243C7B61FB6903F48033002B12D0134B70
:102BB0005B685B0C03F0010328333B4413F8283CAB
:102BC000BB617B690E4A03FB02F2BB69B2FBF3F304
:102BD0007B6204E07B690B4A02FB03F37B627B6A46
:102BE0003B6202E0064B3B6200BF3B6A1846283757
:102BF000BD4690BC704700BFC06B0008001002408B
:102C000000127A0000093D0080B400AF024B1B683F
:102C10001846BD4680BC70470000002080B500AF5C
:102C2000FFF7F2FF0246054B5B681B0A03F0070340
:102C30000349CB5C22FA03F3184680BD0010024022
:102C4000E06B000880B500AFFFF7DEFF0246054BE2
:102C50005B68DB0A03F007030349CB5C22FA03F34A
:102C6000184680BD00100240E06B000880B485B0BB
:102C700000AF78600A4B1B680A4AA2FB03235B0A79
:102C80007A6802FB03F3FB6000BFFB685A1EFA6020
:102C9000002BF9D100BF00BF1437BD4680BC704780
:102CA00000000020D34D621080B586B000AF786080
:102CB00000233B610023FB607B681B6803F001037A
:102CC000002B7DD00023FB754F4BDB6903F0805355
:102CD000002B0DD14C4BDB694B4A43F08053D36141
:102CE000494BDB6903F08053BB60BB680123FB7574
:102CF000464B1B6803F48073002B18D1434B1B68B1
:102D0000424A43F480731360FEF7D8FC386108E050
:102D1000FEF7D4FC02463B69D31A642B01D9032386
:102D20006DE03A4B1B6803F48073002BF0D0364BF8
:102D30001B6A03F44073FB60FB68002B2ED07B689A
:102D40005B6803F44073FA689A4227D02E4B1B6AE3
:102D500023F44073FB602E4B01221A602C4B00229F
:102D60001A60294AFB681362FB6803F00103002B19
:102D700014D0FEF7A3FC38610AE0FEF79FFC024680
:102D80003B69D31A41F28832934201D9032336E0DA
:102D90001D4B1B6A03F00203002BEED01A4B1B6A7B
:102DA00023F440727B685B68174913430B62FB7D19
:102DB000012B05D1144BDB69134A23F08053D361F7
:102DC0007B681B6803F00203002B08D00E4B5B6886
:102DD00023F440427B689B680B4913434B607B683C
:102DE0001B6803F01003002B08D0074B5B6823F42B
:102DF00080027B68DB68044913434B60002318465C
:102E00001837BD4680BD00BF001002400070004072
:102E10004004424280B582B000AF78607B68002BEE
:102E200001D101231DE07B6893F83D30DBB2002B1C
:102E300006D17B68002283F83C207868FEF726FBE9
:102E40007B68022283F83D207B681A687B68043324
:102E50001946104600F026FA7B68012283F83D20CF
:102E6000002318460837BD4680BD80B485B000AF4A
:102E700078607B681B68DA687B681B6842F0010237
:102E8000DA607B681B689B6803F00703FB60FB68E4
:102E9000062B07D07B681B681A687B681B6842F0AA
:102EA00001021A60002318461437BD4680BC7047E3
:102EB00080B582B000AF78607B681B681B6903F047
:102EC0000203022B22D17B681B68DB6803F002033C
:102ED000022B1BD17B681B686FF002021A617B68B2
:102EE00001221A777B681B689B6903F00303002BA0
:102EF00003D0786800F0BAF905E0786800F0ADF921
:102F0000786800F0BCF97B6800221A777B681B6840
:102F10001B6903F00403042B22D17B681B68DB6868
:102F200003F00403042B1BD17B681B686FF00402C1
:102F30001A617B6802221A777B681B689B6903F41D
:102F40004073002B03D0786800F090F905E07868B2
:102F500000F083F9786800F092F97B6800221A7714
:102F60007B681B681B6903F00803082B22D17B6870
:102F70001B68DB6803F00803082B1BD17B681B6808
:102F80006FF008021A617B6804221A777B681B685D
:102F9000DB6903F00303002B03D0786800F066F9C7
:102FA00005E0786800F059F9786800F068F97B6806
:102FB00000221A777B681B681B6903F01003102B33
:102FC00022D17B681B68DB6803F01003102B1BD138
:102FD0007B681B686FF010021A617B6808221A7701
:102FE0007B681B68DB6903F44073002B03D07868AF
:102FF00000F03CF905E0786800F02FF9786800F0FF
:103000003EF97B6800221A777B681B681B6903F016
:103010000103012B0ED17B681B68DB6803F0010301
:10302000012B07D17B681B686FF001021A61786879
:1030300000F00AF97B681B681B6903F08003802B92
:103040000ED17B681B68DB6803F08003802B07D1FF
:103050007B681B686FF080021A61786800F05DFA87
:103060007B681B681B6903F04003402B0ED17B6813
:103070001B68DB6803F04003402B07D17B681B68AB
:103080006FF040021A61786800F002F97B681B68F3
:103090001B6903F02003202B0ED17B681B68DB68C3
:1030A00003F02003202B07D17B681B686FF0200200
:1030B0001A61786800F028FA00BF0837BD4680BD65
:1030C00080B584B000AF786039607B6893F83C309D
:1030D000012B01D10223B3E07B68012283F83C205D
:1030E0007B68022283F83D207B681B689B68FB603D
:1030F000FB6823F07703FB60FB6823F47F43FB60EE
:103100007B681B68FA689A603B681B68B3F5005FD0
:103110003ED0B3F5005F00F28780B3F5805F00F02A
:103120008580B3F5805F7FD8702B1AD0702B7BD849
:10313000602B50D0602B77D8502B3CD0502B73D8BD
:10314000402B58D0402B6FD8302B64D0302B6BD80D
:10315000202B60D0202B67D8002B5CD0102B5AD0AE
:1031600062E07B6818683B6899683B685A683B680E
:10317000DB6800F066F97B681B689B68FB60FB6896
:1031800043F07703FB607B681B68FA689A604EE047
:103190007B6818683B6899683B685A683B68DB68DD
:1031A00000F04FF97B681B689A687B681B6842F4E3
:1031B00080429A603BE07B6818683B6859683B68CE
:1031C000DB681A4600F0C6F87B681B685021184679
:1031D00000F01DF92BE07B6818683B6859683B6874
:1031E000DB681A4600F0E4F87B681B68602118462B
:1031F00000F00DF91BE07B6818683B6859683B6874
:10320000DB681A4600F0A6F87B681B684021184668
:1032100000F0FDF80BE07B681A683B681B681946F4
:10322000104600F0F4F802E000BF00E000BF7B6849
:10323000012283F83D207B68002283F83C20002394
:1032400018461037BD4680BD80B483B000AF7860AB
:1032500000BF0C37BD4680BC704780B483B000AF60
:10326000786000BF0C37BD4680BC704780B483B027
:1032700000AF786000BF0C37BD4680BC704780B49B
:1032800083B000AF786000BF0C37BD4680BC70478C
:1032900080B483B000AF786000BF0C37BD4680BCFF
:1032A0007047000080B485B000AF786039607B68FB
:1032B0001B68FB607B68254A934207D07B68B3F1AB
:1032C000804F03D07B68224A934208D1FB6823F0E9
:1032D0007003FB603B685B68FA681343FB607B68C4
:1032E0001A4A934207D07B68B3F1804F03D07B68C2
:1032F000174A934208D1FB6823F44073FB603B6894
:10330000DB68FA681343FB60FB6823F080023B68CC
:103310005B691343FB607B68FA681A603B689A68D4
:103320007B68DA623B681A687B689A627B68074A46
:10333000934203D13B681A697B681A637B68012258
:103340005A6100BF1437BD4680BC7047002C014055
:103350000004004080B487B000AFF860B9607A60C4
:10336000FB681B6A7B61FB681B6A23F00102FB6838
:103370001A62FB689B693B613B6923F0F0033B6188
:103380007B681B013A6913433B617B6923F00A03A5
:103390007B617A69BB6813437B61FB683A699A6118
:1033A000FB687A691A6200BF1C37BD4680BC704753
:1033B00080B487B000AFF860B9607A60FB681B6AC0
:1033C00023F01002FB681A62FB689B697B61FB6853
:1033D0001B6A3B617B6923F470437B617B681B0341
:1033E0007A6913437B613B6923F0A0033B61BB68AF
:1033F0001B013A6913433B61FB687A699A61FB6878
:103400003A691A6200BF1C37BD4680BC704780B461
:1034100085B000AF786039607B689B68FB60FB68B3
:1034200023F07003FB603A68FB68134343F0070323
:10343000FB607B68FA689A6000BF1437BD4680BCA9
:10344000704780B487B000AFF860B9607A603B60C5
:10345000FB689B687B617B6923F47F437B613B68EE
:103460001A027B681A43BB6813437A6913437B6172
:10347000FB687A699A6000BF1C37BD4680BC704704
:1034800080B485B000AF786039607B6893F83C30D9
:10349000012B01D1022332E07B68012283F83C201A
:1034A0007B68022283F83D207B681B685B68FB60B9
:1034B0007B681B689B68BB60FB6823F07003FB6044
:1034C0003B681B68FA681343FB60BB6823F080030A
:1034D000BB603B685B68BA681343BB607B681B6872
:1034E000FA685A607B681B68BA689A607B68012238
:1034F00083F83D207B68002283F83C200023184697
:103500001437BD4680BC704780B483B000AF78608C
:1035100000BF0C37BD4680BC704780B483B000AF9D
:10352000786000BF0C37BD4680BC704780B582B064
:1035300000AF78607B68002B01D101233FE07B68FE
:1035400093F83930DBB2002B06D17B68002283F878
:1035500038207868FDF7E8FF7B68242283F839205B
:103560007B681B68DA687B681B6822F40052DA60AB
:10357000786800F019F97B681B681A697B681B681A
:1035800022F490421A617B681B685A697B681B6849
:1035900022F02A025A617B681B68DA687B681B6824
:1035A00042F40052DA607B680022DA637B682022F2
:1035B00083F839207B68202283F83A2000231846BC
:1035C0000837BD4680BD80B588B002AFF860B960ED
:1035D0003B601346FB8000237B61FB6893F83A3025
:1035E000DBB2202B40F09080BB68002B02D0FB8820
:1035F000002B01D1012388E0FB6893F83830012BC0
:1036000001D1022381E0FB68012283F83820FB68A6
:103610000022DA63FB68222283F83A20FEF74EF894
:103620007861FB68FA889A85FB68FA88DA855CE03D
:10363000FB68DB8D9BB2013B9AB2FB68DA85FB68C5
:103640009B68B3F5805F2BD13B6800937B690022B8
:103650002021F86800F05DF80346002B01D0032319
:1036600053E0BB683B61FB681B69002B0CD1FB6816
:103670001B685B689BB2C3F308039AB23B691A806C
:10368000BB680233BB6030E0FB681B685B689BB2C1
:10369000DBB29AB23B691A80BB680133BB6024E09D
:1036A0003B6800937B6900222021F86800F031F824
:1036B0000346002B01D0032327E0FB681B69002B86
:1036C00008D1FB681B685968BB685A1CBA60CAB24B
:1036D0001A700AE0FB681B685B68DAB2BB68591CA9
:1036E000B96002F07F02D2B21A70FB68DB8D9BB228
:1036F000002B9DD1FB68202283F83A20FB68002232
:1037000083F83820002300E0022318461837BD460E
:1037100080BD80B584B000AFF860B9603B601346EF
:10372000FB712CE0BB69B3F1FF3F28D0BB69002BD4
:1037300007D0FDF7C3FF02463B68D31ABA699A4225
:103740001DD2FB681B68DA68FB681B6822F4D07224
:10375000DA60FB681B685A69FB681B6822F001028B
:103760005A61FB68202283F83920FB68202283F805
:103770003A20FB68002283F8382003230FE0FB681F
:103780001B681A68BB681340BA689A420CBF0123D1
:103790000023DBB21A46FB799A42C3D000231846B5
:1037A0001037BD4680BD000080B584B000AF7860A2
:1037B0007B681B681B6923F440517B68DA687B686F
:1037C0001B680A431A617B689A687B681B691A4305
:1037D0007B685B691343FB607B681B68DB6823F4D1
:1037E000B05323F00C037A681268F9680B43D36076
:1037F0007B681B685B6923F440717B689A697B680E
:103800001B680A435A617B681B68524A93424ED137
:10381000FFF718FAB860BA6813469B0013449A0081
:103820001A447B685B689B00B2FBF3F34A4AA2FB35
:1038300003235B091901BA6813469B0013449A00DD
:103840001A447B685B689B00B2FBF3F2424BA3FB1C
:1038500002035B09642000FB03F3D31A1B0132331C
:103860003D4AA2FB03235B0903F0F0031944BA6845
:1038700013469B0013449A001A447B685B689B00C4
:10388000B2FBF3F2344BA3FB02035B09642000FBA1
:1038900003F3D31A1B0132332F4AA2FB03235B0924
:1038A00003F00F027B681B680A449A604DE0FFF743
:1038B000B5F9B860BA6813469B0013449A001A44DD
:1038C0007B685B689B00B2FBF3F3234AA2FB0323F4
:1038D0005B091901BA6813469B0013449A001A4405
:1038E0007B685B689B00B2FBF3F21B4BA3FB0203FC
:1038F0005B09642000FB03F3D31A1B013233164A21
:10390000A2FB03235B0903F0F0031944BA681346D2
:103910009B0013449A001A447B685B689B00B2FBCF
:10392000F3F20D4BA3FB02035B09642000FB03F3DE
:10393000D31A1B013233084AA2FB03235B0903F0AD
:103940000F027B681B680A449A6000BF1037BD46AF
:1039500080BD00BF003801401F85EB5180B582B0AB
:1039600000AF03460A46FB711346BB71BB7903F0F7
:103970000103002B14D0FB795A4A342101FB03F3D5
:10398000134404331868FB79564A342101FB03F3CE
:10399000134408331B8801221946FEF73BFD13E050
:1039A000FB79504A342101FB03F3134404331868B4
:1039B000FB794C4A342101FB03F3134408331B8881
:1039C00000221946FEF726FDBB7903F00203002B07
:1039D00014D0FB79434A342101FB03F313440C3325
:1039E0001868FB793F4A342101FB03F31344103379
:1039F0001B8801221946FEF70DFD13E0FB79394AB9
:103A0000342101FB03F313440C331868FB79354A66
:103A1000342101FB03F3134410331B8800221946A1
:103A2000FEF7F8FCBB7903F00403002B14D0FB79FC
:103A30002C4A342101FB03F3134414331868FB7937
:103A4000284A342101FB03F3134418331B88012255
:103A50001946FEF7DFFC13E0FB79224A342101FB13
:103A600003F3134414331868FB791E4A342101FB15
:103A700003F3134418331B8800221946FEF7CAFCCF
:103A8000BB7903F00803002B14D0FB79154A3421CD
:103A900001FB03F313441C331868FB79114A3421EA
:103AA00001FB03F3134420331B8801221946FEF760
:103AB000B1FC13E0FB790B4A342101FB03F31344FF
:103AC0001C331868FB79074A342101FB03F31344C4
:103AD00020331B8800221946FEF79CFC00BF0837E4
:103AE000BD4680BDE86B000880B588B000AF0346D6
:103AF0000A46FB711346BB71FB79574A342101FB1F
:103B000003F313442C331868FB79534A342101FB27
:103B100003F3134430331B8800221946FEF77AFC66
:103B2000BA79FB7911461846FFF718FFFB794A4A24
:103B3000342101FB03F3134424331868FB79464A0C
:103B4000342101FB03F3134428331B880022194658
:103B5000FEF760FC414B9B68FB61414B1B68414A8F
:103B6000A2FB03239A0C13469B001A443C4B1B6890
:103B70003C49A1FB03139B0C5B08D31ABB61374B79
:103B80009B68FA69D31ABA699A42F8D8FB79324A23
:103B9000342101FB03F3134424331868FB792E4AC4
:103BA000342101FB03F3134428331B8801221946F7
:103BB000FEF730FC294B9B687B61294B1B68294A27
:103BC000A2FB03239A0C13469B001A44244B1B6848
:103BD0002449A1FB03139B0C5B08D31A3B611F4BC9
:103BE0009B687A69D31A3A699A42F8D8FB791A4ADB
:103BF000342101FB03F3134424331868FB79164A7C
:103C0000342101FB03F3134428331B880022194697
:103C1000FEF700FC114B9B68FB60114B1B68114ABF
:103C2000A2FB03239B0C642203FB02F20C4B1B68D8
:103C30000C49A1FB03139B0C5B08D31ABB60074B19
:103C40009B68FA68D31ABA689A42F8D800BF00BFD6
:103C50002037BD4680BD00BFE86B000810E000E0E3
:103C60000000002083DE1B4380B586B000AF034612
:103C7000FB71FB7900211846FFF736FFFB79012124
:103C80001846FFF731FF00237B611FE0134B9B6851
:103C90003B61134B1B68134AA2FB03239B0C4FF49D
:103CA0007A7203FB02F20E4B1B680E49A1FB031351
:103CB0009B0C5B08D31AFB60084B9B683A69D31ACC
:103CC000FA689A42F8D87B6901337B617B69012BE2
:103CD000DCD900BF00BF1837BD4680BD10E000E052
:103CE0000000002083DE1B4380B584B000AF034694
:103CF000FB710B46BB7113467B71BB79012B15D150
:103D00007B797F33FB73FB7B1B09BB73FB7B03F06E
:103D10000F037B73BA7BFB7911461846FFF7E4FE6D
:103D20007A7BFB7911461846FFF7DEFEBB79022B42
:103D300015D17B79413BFB73FB7B1B09BB73FB7B81
:103D400003F00F037B73BA7BFB7911461846FFF72C
:103D5000CBFE7A7BFB7911461846FFF7C5FE00BF04
:103D60001037BD4680BD000080B58EB000AF034661
:103D7000FB7100BFFDF7A2FC0346312BFAD9FB799A
:103D80007C4A342101FB03F313442C331868FB797C
:103D9000784A342101FB03F3134430331B8800229B
:103DA0001946FEF737FBFB79724A342101FB03F316
:103DB000134424331868FB796E4A342101FB03F362
:103DC000134428331B8800221946FEF723FBFB7996
:103DD00000211846FFF7C2FD00237B631FE0664BFE
:103DE0009B683B61654B1B68654AA2FB03239B0CE8
:103DF0004FF47A7203FB02F2604B1B686049A1FB2F
:103E000003139B0C5B08D31AFB605B4B9B683A69FE
:103E1000D31AFA689A42F8D87B6B01337B637B6BC9
:103E2000952BDCD9FB7903211846FFF75DFE0023B3
:103E30003B631FE0504B9B68BB61504B1B68504A73
:103E4000A2FB03239B0C4FF47A7203FB02F24B4B51
:103E50001B684B49A1FB03139B0C5B08D31A7B61C6
:103E6000454B9B68BA69D31A7A699A42F8D83B6B7A
:103E700001333B633B6B042BDCD9FB7903211846F0
:103E8000FFF732FE0023FB621FE03B4B9B683B6267
:103E90003A4B1B683A4AA2FB03239B0C4FF47A72FD
:103EA00003FB02F2354B1B683549A1FB03139B0C46
:103EB0005B08D31AFB61304B9B683A6AD31AFA69E4
:103EC0009A42F8D8FB6A0133FB62FB6A042BDCD907
:103ED000FB7903211846FFF707FE274B9B68BB625F
:103EE000264B1B68264AA2FB03239B0C962203FB4E
:103EF00002F2224B1B682249A1FB03139B0C5B08B7
:103F0000D31A7B621C4B9B68BA6AD31A7A6A9A42AC
:103F1000F8D8FB7902211846FFF7E6FDFB7902216C
:103F20001846FFF7E1FDFB7908211846FFF7DCFD95
:103F3000FB7900211846FFF7D7FDFB790C211846C5
:103F4000FFF7D2FDFB7900211846FFF7CDFDFB7985
:103F500006211846FFF7C8FDFB7900211846FFF738
:103F6000C3FDFB7901211846FFF7BEFD00BF3837BE
:103F7000BD4680BDE86B000810E000E000000020B6
:103F800083DE1B4380B590B000AF03460A46FB7149
:103F90001346BB71BB7903F00F0387F83F30BB7941
:103FA00023F00F0387F83E30FB79A44A342101FB4C
:103FB00003F313442C331868FB79A04A342101FB26
:103FC00003F3134430331B8801221946FEF722FA0B
:103FD00097F83E301B09DAB2FB7911461846FFF715
:103FE000BDFCFB79954A342101FB03F313442433D0
:103FF0001868FB79914A342101FB03F313442833F9
:104000001B8800221946FEF705FA8D4B9B68BB639F
:104010008C4B1B688C4AA2FB03239A0C13469B0013
:104020001A44884B1B688849A1FB03139B0C5B084F
:10403000D31A7B63824B9B68BA6BD31A7A6B9A4212
:10404000F8D8FB797D4A342101FB03F31344243370
:104050001868FB79794A342101FB03F313442833B0
:104060001B8801221946FEF7D5F9754B9B683B6307
:10407000744B1B68744AA2FB03239A0C13469B00E3
:104080001A44704B1B687049A1FB03139B0C5B081F
:10409000D31AFB626A4B9B683A6BD31AFA6A9A424C
:1040A000F8D8FB79654A342101FB03F31344243328
:1040B0001868FB79614A342101FB03F31344283368
:1040C0001B8800221946FEF7A5F95D4B9B68BB6271
:1040D0005C4B1B685C4AA2FB03239B0C642203FB22
:1040E00002F2584B1B685849A1FB03139B0C5B0859
:1040F000D31A7B62524B9B68BA6AD31A7A6A9A4285
:10410000F8D897F83F20FB7911461846FFF726FCB0
:10411000FB794A4A342101FB03F313442433186822
:10412000FB79464A342101FB03F3134428331B88EF
:1041300000221946FEF76EF9414B9B683B62414BEA
:104140001B68414AA2FB03239A0C13469B001A44A6
:104150003C4B1B683C49A1FB03139B0C5B08D31A27
:10416000FB61374B9B683A6AD31AFA699A42F8D8CE
:10417000FB79324A342101FB03F3134424331868DA
:10418000FB792E4A342101FB03F3134428331B88A7
:1041900001221946FEF73EF9294B9B68BB61294B6A
:1041A0001B68294AA2FB03239A0C13469B001A445E
:1041B000244B1B682449A1FB03139B0C5B08D31AF7
:1041C0007B611F4B9B68BA69D31A7A699A42F8D807
:1041D000FB791A4A342101FB03F313442433186892
:1041E000FB79164A342101FB03F3134428331B885F
:1041F00000221946FEF70EF9114B9B683B61114BEB
:104200001B68114AA2FB03239B0C642203FB02F2EE
:104210000C4B1B680C49A1FB03139B0C5B08D31AC6
:10422000FB60074B9B683A69D31AFA689A42F8D840
:1042300000BF00BF4037BD4680BD00BFE86B00082F
:1042400010E000E00000002083DE1B4380B584B056
:1042500000AF03463960FB710023FB600BE0FB6895
:104260003A6813441A78FB7911461846FFF78AFE1C
:10427000FB680133FB60FB683A6813441B78002B32
:10428000EDD100BF00BF1037BD4680BD002B2DE92A
:10429000F0471D46BBBF03F100431D4600232D23FD
:1042A00088B01446B8BF1446129A109E1370149B1F
:1042B000DDF84CA023F02008B8F1460F05D0B8F186
:1042C000450F00D10136022300E0032307AA049220
:1042D00006AACDE902A2CDE9003622462B4600F01F
:1042E0004FFEB8F1470F074619D1119BDB070ED5DA
:1042F00000EB06090022002320462946FCF754FB68
:1043000008B1CDF81C903022079B4B451ED3384690
:10431000079B159ADB1B136008B0BDE8F087B8F166
:10432000460F00EB0609E5D10378302B0AD10022B5
:10433000002320462946FCF737FB18B9C6F10106D1
:10434000CAF80060DAF800309944D3E7591C0791A5
:104350001A70D9E7F7B50029B6BF2D232B234942A0
:1043600009290270437029DD0DF107031D460A2754
:10437000B1FBF7F61A4607FB1614303402F8014C6D
:104380000C46632C314603F1FF33F1DC3031941ECF
:1043900003F8011C2346411CAB420AD30DF109036B
:1043A0009B1AAC4288BF002302330344181A03B09F
:1043B000F0BD13F8016B01F8016FEDE730233031E8
:1043C0008370C170031DF1E72DE9F04F91B00C46E9
:1043D000DDF8688016461F46054600F0C1FC0368FC
:1043E00018460893FBF7B4FE00230E93D8F800306C
:1043F0000990073323F0070303F1080294F818A08B
:10440000D4F800B0C8F80020D3E9008929F00043AF
:104410000B93CDF828804FF0FF32DDE90A01C4E9A3
:1044200012899C4BFCF7F2FA70BBDDE90A014FF0F0
:10443000FF32984BFCF7CCFA30BB002200234046F9
:104440004946FCF7BBFA10B12D2384F84330924A59
:10445000924BBAF1470F94BF9046984603234FF012
:10446000000923612BF004032360334621462846CC
:1044700000970FAA00F0D4F9013040F090804FF07F
:10448000FF3011B0BDE8F08F42464B4640464946EA
:10449000FCF7BCFA48B14B46002BB8BF2D23804A2D
:1044A000B8BF84F843307F4BD3E763680AF0DF017D
:1044B0005A1C3FD10623636000224BF480632360C3
:1044C00006920EAACDE904A20DAA03920DF13302C1
:1044D000CDE9013263684246009328464B460A9173
:1044E000FFF7D4FE0A99804647290D9928D1C81CA8
:1044F00002DB6368994240DDAAF1020A5FFA8AFA98
:104500005246013904F150000D91FFF723FF0E9A36
:1045100081461318012A236102DC2268D20701D5E3
:10452000013323619DF83330002B9ED02D2384F876
:1045300043309AE74729BFD1002BBDD10123BAE709
:10454000BAF1650FDCD9BAF1660F18D1002963689A
:104550000BDD216113B92268D00702D501330B446A
:1045600023614FF00009A165DCE713B92268D20787
:1045700001D50233F4E70123F2E74FF0670A0E9BFF
:10458000994205DB23682161D807EAD54B1CE7E790
:104590000029CCBF0122C1F102021344E0E72368E5
:1045A0005A0507D42369424631462846B8470130A8
:1045B0002BD164E7BAF1650F40F2DC80D4E9120137
:1045C00000220023FCF7F0F9002833D00123314604
:1045D0002846354AB84701303FF451AFDDE90D3880
:1045E000434502DB2368D8070FD5DDE908233146B0
:1045F0002846B84701303FF442AF4FF0000908F1B8
:10460000FF3804F11A0AC84509DC23689B0700F14A
:104610000281E0680F9B9842B8BF184631E701233A
:10462000524631462846B84701303FF428AF09F1D9
:104630000109E8E70D9B002B38DC012331462846B1
:10464000194AB84701303FF41AAFDDE90D3959EA8C
:10465000030302D12368D907D7D5DDE90823314602
:104660002846B84701303FF40AAF4FF0000A04F182
:104670001A0B0D9B5B42534501DC4B4693E701232C
:104680005A4631462846B84701303FF4F8AE0AF1A1
:10469000010AEEE7FFFFEF7F1C6C0008206C0008AA
:1046A000246C0008286C00082C6C0008A36DDDF851
:1046B00038A05345A8BF5346002B994636DC4FF02F
:1046C000000B29EAE97904F11A02A36D0A93A3EB1E
:1046D00009035B4531DC0D9B9A453ADC2368DA0718
:1046E00037D40D9BAAEB03090A9BAAEB0303994558
:1046F000A8BF9946B9F1000F33DC4FF0000829EA52
:10470000E97904F11A0B0D9BAAEB0303A3EB090350
:1047100043457FF77AAF01235A4631462846B847CA
:1047200001303FF4ACAE08F10108ECE742463146F7
:104730002846B8470130C2D1A1E6012331462846B8
:104740000A92B84701303FF49AAE0A9A0BF1010B76
:10475000BBE73146DDE908232846B8470130C0D120
:104760008DE60A9A4B46314628464244B847013006
:10477000C3D184E6DDF838A0BAF1010F01DCDB0714
:1047800036D50123424631462846B84701303FF42A
:1047900076AEDDE9082331462846B84701303FF4BC
:1047A0006EAED4E91201002200230AF1FF3AFCF7B1
:1047B000FBF8C0B9534608F1010231462846B84714
:1047C00001300CD15BE601235A4631462846B847F2
:1047D00001303FF454AE08F10108D045F3DB4B46FD
:1047E00004F15002E0E64FF0000804F11A0BF4E780
:1047F00001234246E1E701234A4631462846B847AD
:1048000001303FF43CAE08F10108E3680F995B1AF0
:104810004345F0DCFDE64FF0000804F11909F4E728
:104820002DE9F047164698468A680B690746934279
:10483000B8BF1346336091F843200C46DDF8209052
:104840000AB1013333602368990642BF33680233EB
:104850003360256815F0060506D104F1190AE368EE
:1048600032689B1AAB422BDC94F843302268003B41
:1048700018BF0123920630D44146384604F1430262
:10488000C847013023D02368226903F00603042BB4
:1048900014BF002533684FF0000608BFE56804F137
:1048A0001A0408BFED1A54F8123C08BF25EAE57552
:1048B0009342C4BF9B1AED18B5421AD1002008E0FC
:1048C0000123524641463846C847013003D14FF0D4
:1048D000FF30BDE8F0870135C1E73020E11881F8ED
:1048E00043005A1C94F845102244023382F84310C6
:1048F000C2E70123224641463846C8470130E6D088
:104900000136D9E72DE9FF470F7E9146782F804683
:104910000C469A460C9E01F1430207D8622F0AD832
:10492000002F00F0D380582F00F0BA8004F1420627
:1049300084F842703AE0A7F16303152BF6D801A181
:1049400051F823F09D490008B14900082D4900089D
:104950002D4900082D4900082D490008B1490008DB
:104960002D4900082D4900082D4900082D4900084F
:10497000B34A0008DB4900086D4A00082D490008C9
:104980002D490008D54A00082D490008DB490008D8
:104990002D4900082D490008754A000833681A1D82
:1049A0001B68326004F1420684F8423001239EE025
:1049B00033682068191D3160060601D51D6803E0C3
:1049C0004506FBD5B3F90050002D03DA2D236D42C7
:1049D00084F843300A23594811E0216833680806F7
:1049E00053F8045B02D4490648BFADB26F2F336061
:1049F00014BF0A2308235148002184F84310666835
:104A0000002EA8BF2168A660A4BF21F00401216088
:104A10000DB9002E4BD01646B5FBF3F103FB115731
:104A2000C75D06F8017D2F46BB420D46F4D9082B21
:104A30000BD12368DF0708D5236961689942DEBF7F
:104A4000302306F8013C06F1FF36921B22614B46EB
:104A500021464046CDF800A003AAFFF7E1FE013051
:104A60004AD14FF0FF3004B0BDE8F087236843F02F
:104A7000200323607827324884F845702368316822
:104A80001F0651F8045B02D45F0648BFADB2316027
:104A9000D90744BF43F0200323601DB11023ABE7C7
:104AA0002648E9E7236823F020032360F6E716464B
:104AB000BDE733682568181D616930602E061B68E4
:104AC00001D5196002E06806FBD51980002316465F
:104AD0002361BCE7336800211A1D32601E686268DA
:104AE000304600F0B4F908B1801B60606368236150
:104AF000002384F84330AAE73246494640462369FA
:104B0000D0470130ADD023689B0713D4E068039BE6
:104B10009842B8BF1846A6E70123324649464046A8
:104B2000D04701309DD00135E36803995B1AAB4251
:104B3000F2DCEBE7002504F11906F5E72E6C00081E
:104B40003F6C0008002310B50446C0E90033C0E9FB
:104B50000433836081814366C281836119460822E0
:104B60005C3000F0F4F80D4B246263620C4BA362DE
:104B70000C4BE3620C4B23630C4B9C4206D003F1BD
:104B80006802944202D0D0339C4205D104F158000F
:104B9000BDE8104000F058B910BD00BFC94C000876
:104BA000EB4C0008234D0008474D0008C0020020D0
:104BB000024A0349034800F069B800BF0C00002016
:104BC0000D6500081C00002041680C4B10B599428F
:104BD000044601D001F09AFCA168094B994202D029
:104BE000204601F093FCE168064B994204D0204630
:104BF000BDE8104001F08ABC10BD00BFC00200201B
:104C0000280300209003002010B50B4B0B4C0C4ADE
:104C100020461A6004210022FFF794FF04F1680087
:104C200001220921FFF78EFF04F1D0000222BDE826
:104C300010401221FFF786BFF8030020C0020020B9
:104C4000B14B0008014800F000B900BF010400208A
:104C5000014800F0FBB800BF0104002010B5044675
:104C6000FFF7F0FF236A1BB1BDE81040FFF7F0BF6C
:104C7000044B2362044B1B68002BF5D1FFF7C4FFE4
:104C8000F2E700BFC94B0008F80300202DE9F84304
:104C90000746884614460026D4E90195B9F1010972
:104CA00005D52468002CF7D13046BDE8F883AB89E0
:104CB000012B07D9B5F90E30013303D02946384608
:104CC000C04706436835E9E710B50C46B1F90E1048
:104CD00000F06CF80028ABBF636DA3891B1823F4A8
:104CE0008053ACBF6365A38110BD2DE9F0411F4621
:104CF0008B890546DB050C46164605D502230022A6
:104D0000B1F90E1000F040F8A389324623F4805325
:104D1000A38128463B46B4F90E10BDE8F04100F0EF
:104D200057B810B50C46B1F90E1000F02DF8431C21
:104D3000A38915BF606523F4805343F48053A38196
:104D400018BFA38110BDB1F90E1000F00DB80346D5
:104D50000244934200D1704703F8011BF9E70000B9
:104D6000004870475801002038B50023054D04461F
:104D700008462B60FCF7A3FA431C02D12B6803B151
:104D8000236038BDFC03002038B5044608461146B0
:104D90000022054D2A601A46FCF7B5FA431C02D1E1
:104DA0002B6803B1236038BDFC03002038B50446EE
:104DB000084611460022054D2A601A46FCF746FABD
:104DC000431C02D12B6803B1236038BDFC030020D3
:104DD00038B50446084611460022054D2A601A4699
:104DE000FCF751FA431C02D12B6803B1236038BD94
:104DF000FC030020014B1868704700BF180000201A
:104E000070B500260C4D0D4C641BA410A64209D1B0
:104E100001F0C8FE00260A4D0A4C641BA410A642ED
:104E200005D170BD55F8043B98470136EEE755F8BB
:104E3000043B98470136F2E7986F0008986F000826
:104E4000986F00089C6F00087047704770470346D2
:104E500010B5C9B202449342184601D1002003E0C4
:104E6000047801338C42F6D110BD2DE9F74F036968
:104E70000C690746A3427EDB013CA30000F1140548
:104E800001F11408009305EB8403019358F82430D2
:104E900055F8242001339A42B2FBF3F608EB84095B
:104EA0002ED34FF0000AC446AE46D3465CF8043B0E
:104EB00098B206FB00A01B0C020C06FB0323DEF8D5
:104EC000002080B292B2121A5A44DEF800004FEA73
:104ED000134A9BB2C3EB224303EB104392B242EA64
:104EE0000342E1454FEA234B4EF8042BDED2009BF0
:104EF000EB582BB9019B043B9D421A462FD33C61D2
:104F0000384601F07BF9002825DB2946002058F8B7
:104F1000042BD1F800C01FFA82FE1FFA8CF3A3EB1A
:104F20000E030344120CC2EB234202EB1C429BB261
:104F300043EA0243C1454FEA224041F8043BE6D22E
:104F400055F8242005EB840322B9043B9D421A4600
:104F50000BD33C610136304603B0BDE8F08F1268D8
:104F6000043B002ACBD1013CC6E71268043B002A6F
:104F7000EFD1013CEAE70020EEE70000000000006E
:104F80002DE9F04F14461D46C76997B08346CDE919
:104F90000245239E7FB9102000F002FE0246CBF8A6
:104FA0001C0020B9EF21A84BA84801F0F5FAC0E990
:104FB00001770760C760DBF81C30196859B15A687F
:104FC000012393404A608B60584600F0DFFE0022C8
:104FD000DBF81C301A602B1EAFBF0023012223F028
:104FE00000430393A8BF3360DDF80C80984BB8BF33
:104FF000326033EA080312D142F20F73229A13602F
:10500000C8F31303234300F05085249BDFF844A228
:10501000002B00F052850AF1030300F04CBDDDE9DE
:105020000223CDE90C23DDE90C0100220023FBF76C
:10503000BBFC074658B10123229A1360249B13B18D
:10504000854B249A1360DFF814A200F036BD14AB30
:10505000019315AB00935846DDE90C2301F07EF96E
:10506000C8F30A568146002E77D0DDE90C010D9B6E
:10507000A6F2FF36C3F3130343F07F5343F4401308
:10508000129719460022764BFBF76EF868A3D3E916
:105090000023FBF721FA68A3D3E90023FBF766F8A6
:1050A000044630460D46FBF7ADF965A3D3E900236E
:1050B000FBF712FA02460B4620462946FBF756F844
:1050C00004460D46FBF7B8FC0022074600232046A5
:1050D0002946FBF773FC40B13846FBF793F92246AB
:1050E0002B46FBF761FC00B9013F162F53D8DDE9D1
:1050F0000C015C4B03EBC703D3E90023FBF75EFC19
:1051000000284AD00023013F0F93149B9B1B5A1E7B
:1051100046BFC3F1010800234FF00008099248BFC1
:105120000993002F3BDB099B0E973B440993002317
:105130000A93209B092B66D8052BC4BF043B209300
:10514000209BC8BF0024A3F10203D8BF0124032B76
:1051500064D8DFE803F02B383656DDE914631E44CB
:1051600006F23243202BC1BFC3F1400308FA03F813
:1051700006F2124324FA03F3D6BFC3F1200348EA30
:10518000030004FA03F0FBF72DF90122A1F1F873F3
:10519000013E129275E70123B6E70F90B5E77B4217
:1051A0000A930023A8EB07080E93C2E700230B9392
:1051B000219B002B35DC01231A46CDE907332192D0
:1051C0000BE00123F3E700230B93219BFB180893CB
:1051D0000133012B0793B8BF012300210422DBF820
:1051E0001C0002F114059D421FD94160584600F091
:1051F0008DFD8246002839D1024640F2AF111A4B8C
:10520000D2E60123E0E7012400230B9420934FF022
:10521000FF330022CDE907331223D0E701230B939C
:10522000F5E7219BCDE90733D7E701315200D8E7F5
:1052300061436F63A787D23FB3C8608B288AC63F9C
:10524000FB799F501344D33F5D6C0008746C0008D9
:105250000000F07F596C00082D6C00082C6C0008D1
:105260000000F83F706D0008CC6C0008DBF81C30C3
:105270001860079B0E2B00F2A480002C00F0A18088
:10528000002F33DD864B07F00F0203EBC203F80556
:10529000D3E90034CDE904344FEA271416D5DDE90B
:1052A0000C01804B0326D3E90823FBF73FFACDE935
:1052B000020104F00F047B4D54B9DDE90423DDE95C
:1052C0000201FBF733FACDE9020128E00226F2E7FA
:1052D000E10708D5DDE90401D5E90023FBF7FCF877
:1052E000CDE90401013664100835E5E700F0D2800D
:1052F000DDE90C017C426A4B04F00F0203EBC203B0
:10530000D3E90023FBF7E8F802260023CDE90201E8
:10531000644D2411002C40F0B280002BD3D1DDE984
:1053200002450F9B002B00F0B78000222046294643
:105330005D4BFBF743FB002800F0AE80079B002B82
:1053400000F0AA80089B002B37DD7B1E20460493CB
:1053500000222946554BFBF7BFF8CDE90201089C16
:1053600001363046FBF74EF8DDE90223FBF7B4F8CF
:1053700000224F4BFAF7FAFE0546A1F15076002CB9
:1053800040F09A80DDE9020100224A4BFAF7ECFE78
:1053900002460B46CDE902232A463346FBF72CFB97
:1053A000002840F08E82DDE902012A4606F1004322
:1053B000FBF704FB002840F02781DDE90C34CDE940
:1053C0000234159B002BC0F263810E2F00F3608125
:1053D000334B03EBC703D3E90034CDE90434219BFD
:1053E000002B03DA079B002B40F30081DDE9024527
:1053F0005646DDE9042320462946FBF797F9FBF7DB
:105400001BFB8046FAF7FEFFDDE90423FBF764F897
:1054100002460B4620462946FAF7A6FE08F130045C
:10542000079D06F8014BA6EB0A04A54202460B466F
:1054300040F01681FAF79AFEDDE9042304460D4692
:10544000FBF7DAFA002840F0F880DDE90423204673
:105450002946FBF7A9FA18B118F0010F40F0ED80CA
:105460004946584600F092FC00233370229B0137D6
:105470001F60249B002B00F020831E601DE3E207C9
:1054800005D5D5E90023FBF727F801230136641081
:1054900008353FE7022642E7079C049761E700BF13
:1054A000706D0008486D00080000F03F00002440C7
:1054B00000001C4000001440704B0B9903EBC40328
:1054C00053E902235444002945D000206C49FBF7DE
:1054D0002DF933462A46FAF747FE5646CDE9100124
:1054E000DDE90201FBF7A8FA0546FAF78BFF024651
:1054F0000B46DDE90201FAF737FE02460B4630356E
:10550000CDE90223DDE9102306F8015BFBF756FA2B
:10551000002863D1DDE9022300205A49FAF724FE6E
:10552000DDE91023FBF74AFA002840F08780A64205
:105530003FF443AFDDE910010022534BFAF7CCFFF3
:105540000022CDE91001DDE902014F4BFAF7C4FF5B
:10555000CDE90201C4E731462846FAF7BDFF5646B9
:10556000CDE910011394DDE90201FBF765FA054668
:10557000FAF748FF02460B46DDE90201FAF7F4FDAF
:1055800002460B46303506F8015BA642CDE9022300
:105590004FF0000224D1DDE91001394BFAF7E6FDA6
:1055A00002460B46DDE90201FBF726FA002845D149
:1055B000DDE9102300203249FAF7D6FD02460B46FA
:1055C000DDE90201FBF7FAF900283FF4F6AE139E7D
:1055D000731E139316F8013C302BF8D0049F3FE75D
:1055E000294BFAF779FFCDE90201BCE70CD1DDE9DF
:1055F00004010022254BFAF76FFFDDE90223FBF7D8
:10560000F1F9002800F05B8100242546219B5646D5
:10561000DB43049300272146584600F0B7FB002DDA
:10562000DCD02FB1AF4203D03946584600F0AEFB74
:105630002946584600F0AAFBD0E7049733461E4699
:1056400013F8012D392A07D19A45F8D1049A01326D
:10565000049230228AF800201A7801321A70BDE7CD
:105660000022094BFAF738FF0022002304460D46BA
:10567000FBF79AF900283FF4BCAEF1E6706D000824
:105680000000E03F0000F03F000024400000144014
:105690000B9A002A00F0DB80209A012A00F3BF80D9
:1056A000129A002A00F0B78003F2334346460A9C60
:1056B000099A01211A4458469844099200F01AFCAC
:1056C00005465EB1099B002B08DDB342A8BF3346F7
:1056D000099AA8EB0308F61AD31A09930A9BF3B1A7
:1056E0000B9B002B00F0B7808CB129462246584610
:1056F00000F0BEFC4A4601460546584600F010FC44
:1057000049460490584600F041FB049B99460A9B89
:105710001A1B04D04946584600F0AAFC81460121D4
:10572000584600F0E7FB0E9B0446002B00F0C981B1
:105730001A460146584600F09BFC209B0446012B6C
:1057400000F38F80029B002B40F08780039BC3F304
:105750001303002B40F08380039B23F000431B0DB9
:105760001B052BB1099B08F10108013309930123A3
:105770000A930E9B002B00F0AA81236904EB83039C
:10578000186900F06BFBC0F12000099B184410F071
:105790001F0071D0C0F12003042B65DD099BC0F10F
:1057A0001C000344804406440993B8F1000F05DD52
:1057B00049464246584600F0B5FC8146099B002BFD
:1057C00005DD21461A46584600F0ACFC04460F9B06
:1057D000002B53D02146484600F010FD00284DDA3A
:1057E0007B1E494604930A220023584600F0F0FA33
:1057F0000B9B8146002B00F06C81002329460A2276
:10580000584600F0E5FA089B0546002B61DC209B1A
:10581000022B3BDC5DE0149BC3F1360346E7079B9C
:105820005C1E0A9BA342BFBF0A9B0E9AE31AD218C2
:10583000A8BF1C1B079BBEBF0A940E920024002B1E
:10584000B5BFA8EB030646460023079B30E7464654
:105850000A9C0B9D35E70A9A5CE7002388E7029BC8
:1058600086E700230A9388E79FD0099A1C331A44DD
:1058700098441E44099298E70346F6E7079B04976D
:10588000002B20DC0893209B022B1EDD089B002BA5
:105890007FF4BCAE21460522584600F099FA014635
:1058A0000446484600F0AAFC00287FF7AFAE31233B
:1058B000564606F8013B049B01330493AAE6079C75
:1058C00004972546F3E7079B08930B9B002B00F0FA
:1058D0000481002E05DD29463246584600F022FCA0
:1058E00005460A9B002B5AD05846696800F00EFA0C
:1058F000064628B9024640F2EF21834BFFF754BB1E
:105900002A6905F10C01023292000C3000F036FEDB
:1059100001223146584600F005FC2F4605460AF1A3
:1059200001030793089B53440B93029B03F001036D
:105930000A93079B2146013B48460293FFF795FADD
:105940003946089000F13008484600F057FC2A46D6
:1059500009902146584600F06DFCC268064602BB1D
:105960000146484600F04AFC0246314658460C9231
:1059700000F00CFA209B0C9A079E43EA02010A9B56
:10598000194310D1B8F1390F29D0099B002B02DD42
:10599000089B03F13108029B83F800803BE6284610
:1059A000BBE70122E1E7099B002B04DB20990B43B5
:1059B0000A990B4320D1002AEDDD494601225846C1
:1059C00000F0B0FB2146814600F018FC002803DC03
:1059D000E1D118F0010FDED0B8F1390FD8D1392359
:1059E000029A137033461E4616F8012C013B392AE1
:1059F00052D001321A700EE6002A07DDB8F1390FD5
:105A0000EDD0029A08F10103137004E6079B079A90
:105A100003F8018C0B9B934228D0494600230A22AD
:105A2000584600F0D5F9AF4281464FF000034FF0E1
:105A30000A023946584607D100F0CAF9074605461A
:105A4000079B0133079374E700F0C2F92946074624
:105A500000230A22584600F0BBF90546F0E7089BF0
:105A60000027002BCCBF1E46012656444946012282
:105A7000584600F057FB2146814600F0BFFB002846
:105A8000B0DC02D118F0010FACD133461E4613F83A
:105A9000012D302AFAD0BEE59A45A4D1049B0133EA
:105AA000049331238AF80030B5E5249BDFF85CA02D
:105AB0001BB10AF10803249A1360504617B0BDE8E1
:105AC000F08F209B012B7FF73DAE0E9B0A930120A8
:105AD0005BE6089B002B7FF7D6AE5646214648462C
