:100000000C946B000C947D000C947D000C947D008E
:100010000C947D000C947D000C947D000C947D006C
:100020000C947D000C947D000C947D000C947D005C
:100030000C947D000C947D000C947D000C947D004C
:100040000C94E3000C947D000C947D000C947D00D6
:100050000C947D000C947D000C947D000C947D002C
:100060000C947D000C947D0005A84CCDB2D44EB903
:100070003836A9020C50B9918688083CA6AAAA2A4B
:10008000BE000000803F00000008000201000003E5
:100090000407000000000000000000000000250030
:1000A00028002B0000000000240027002A00040480
:1000B0000404040404040202020202020303030310
:1000C00003030102040810204080010204081020EC
:1000D00001020408102011241FBECFEFD8E0DEBFBC
:1000E000CDBF22E0A0E0B1E001C01D92AF3FB2075A
:1000F000E1F70E942D010C94B6040C940000EBEC87
:10010000F0E02491E7EBF0E08491882399F090E00F
:10011000880F991FFC01EC55FF4FA591B491FC018C
:10012000E656FF4F859194918FB7F894EC91E22BAE
:10013000EC938FBF0895EFE8F0E02491EBECF0E052
:100140009491E7EBF0E0E491EE23C9F0222339F03B
:10015000233001F1A8F4213019F1223029F1F0E027
:10016000EE0FFF1FE656FF4FA591B4912FB7F894FD
:10017000EC91811126C090959E239C932FBF0895EA
:100180002730A9F02830C9F0243049F720918000A9
:100190002F7D03C0209180002F7720938000DFCF38
:1001A00024B52F7724BDDBCF24B52F7DFBCF209145
:1001B000B0002F772093B000D2CF2091B0002F7DD8
:1001C000F9CF9E2BDACF1F920F920FB60F92112408
:1001D0002F933F938F939F93AF93BF938091FB0295
:1001E0009091FC02A091FD02B091FE023091FA02C2
:1001F00023E0230F2D3758F50196A11DB11D209343
:10020000FA028093FB029093FC02A093FD02B0934C
:10021000FE028091F6029091F702A091F802B0914F
:10022000F9020196A11DB11D8093F6029093F70289
:10023000A093F802B093F902BF91AF919F918F9173
:100240003F912F910F900FBE0F901F90189526E8A9
:10025000230F0296A11DB11DD2CF789484B5826080
:1002600084BD84B5816084BD85B5826085BD85B55A
:10027000816085BD80916E00816080936E001092D8
:100280008100809181008260809381008091810053
:1002900081608093810080918000816080938000E4
:1002A0008091B10084608093B1008091B000816042
:1002B0008093B00080917A00846080937A0080916E
:1002C0007A00826080937A0080917A0081608093C6
:1002D0007A0080917A00806880937A001092C10041
:1002E0000E947F0002E011E0D0E0C0E0BE010D2ED0
:1002F000000C880B990B0E942D0320E030E04AEFA0
:1003000053E40E948A0223EC35EF48EC50E40E944B
:10031000B9030E94260420E030E04EEF52E40E9430
:10032000B90320E030E04EEF52E40E941E020E942A
:10033000FC02F80161938F012196C43FF1E0DF07D1
:10034000A9F688EE93E0909301018093000106EFF7
:1003500012E03FE8E32E30E0F32E40E0C42E40E010
:10036000D42EC2E0D1E09990A92CB12C0E947F003C
:10037000A114B104D1F480E00E949B00809100019F
:10038000909101018230910538F0880F991F880FF4
:10039000991F05970197F1F70C171D0721F7C11455
:1003A000D104F9F20E940000DCCF8FEFA816B1044F
:1003B00011F481E0E1CFF7018491833021F148F419
:1003C0008130B9F08230D1F0F0E8AF16B1048CF78B
:1003D000D2CF873011F1883041F18430A9F7809174
:1003E0008000806280938000B0928B00A0928A008F
:1003F000C5CF84B5806884BD97BCC0CF84B580620A
:1004000084BD98BCBBCF80918000806880938000C1
:10041000B0928900A0928800B1CF8091B00080682E
:100420008093B0009092B300A9CF8091B000806219
:100430008093B0009092B400A1CF5058BB27AA2758
:100440000E9435020C947F030E94710338F00E94D1
:10045000780320F039F49F3F19F426F40C946E03CE
:100460000EF4E095E7FB0C946803E92F0E949003DB
:1004700058F3BA17620773078407950720F079F4D9
:10048000A6F50C94B2030EF4E0950B2EBA2FA02D16
:100490000B01B90190010C01CA01A0011124FF2731
:1004A000591B99F0593F50F4503E68F11A16F0402C
:1004B000A22F232F342F4427585FF3CF469537952B
:1004C0002795A795F0405395C9F77EF41F16BA0BF0
:1004D000620B730B840BBAF09150A1F0FF0FBB1F9E
:1004E000661F771F881FC2F70EC0BA0F621F731FE7
:1004F000841F48F4879577956795B795F7959E3F44
:1005000008F0B0CF9395880F08F09927EE0F9795D4
:10051000879508950E949E020C947F030E947803A1
:1005200058F00E94710340F029F45F3F29F00C94C9
:10053000680351110C94B3030C946E030E94900352
:1005400068F39923B1F3552391F3951B550BBB2702
:10055000AA2762177307840738F09F5F5F4F220F47
:10056000331F441FAA1FA9F335D00E2E3AF0E0E83E
:1005700032D091505040E695001CCAF72BD0FE2F88
:1005800029D0660F771F881FBB1F2617370748071C
:10059000AB07B0E809F0BB0B802DBF01FF279358D4
:1005A0005F4F3AF09E3F510578F00C9468030C942D
:1005B000B3035F3FE4F3983ED4F386957795679550
:1005C000B795F7959F5FC9F7880F911D9695879509
:1005D00097F90895E1E0660F771F881FBB1F621728
:1005E00073078407BA0720F0621B730B840BBA0BE6
:1005F000EE1F88F7E09508950E94980388F09F57B2
:1006000098F0B92F9927B751B0F0E1F0660F771F36
:10061000881F991F1AF0BA95C9F714C0B13091F02C
:100620000E94B203B1E008950C94B203672F782FB3
:100630008827B85F39F0B93FCCF3869577956795F1
:10064000B395D9F73EF490958095709561957F4F5D
:100650008F4F9F4F0895E89409C097FB3EF4909503
:100660008095709561957F4F8F4F9F4F9923A9F08B
:10067000F92F96E9BB279395F6958795779567951A
:10068000B795F111F8CFFAF4BB0F11F460FF1BC05E
:100690006F5F7F4F8F4F9F4F16C0882311F096E9F1
:1006A00011C0772321F09EE8872F762F05C066239F
:1006B00071F096E8862F70E060E02AF09A95660F58
:1006C000771F881FDAF7880F9695879597F9089511
:1006D00097F99F6780E870E060E008959FEF80ECF5
:1006E000089500240A941616170618060906089598
:1006F00000240A9412161306140605060895092EFE
:100700000394000C11F4882352F0BB0F40F4BF2B6C
:1007100011F460FF04C06F5F7F4F8F4F9F4F0895AC
:1007200057FD9058440F551F59F05F3F71F04795A2
:10073000880F97FB991F61F09F3F79F08795089587
:10074000121613061406551FF2CF4695F1DF08C0A6
:10075000161617061806991FF1CF869571056105C3
:1007600008940895E894BB2766277727CB0197F96B
:1007700008950E94CC030C947F030E94710338F00B
:100780000E94780320F0952311F00C9468030C94D8
:100790006E0311240C94B3030E94900370F3959F91
:1007A000C1F3950F50E0551F629FF001729FBB2768
:1007B000F00DB11D639FAA27F00DB11DAA1F649F04
:1007C0006627B00DA11D661F829F2227B00DA11DB7
:1007D000621F739FB00DA11D621F839FA00D611D3D
:1007E000221F749F3327A00D611D231F849F600D5E
:1007F000211D822F762F6A2F11249F5750409AF087
:10080000F1F088234AF0EE0FFF1FBB1F661F771F12
:10081000881F91505040A9F79E3F510580F00C94DD
:1008200068030C94B3035F3FE4F3983ED4F38695DA
:1008300077956795B795F795E7959F5FC1F7FE2B7D
:10084000880F911D9695879597F908959F930E941B
:1008500030040F9007FCEE5F0C9459040C946E0367
:100860000E949803D8F3E894E0E0BB279F57F0F08C
:100870002AED3FE049EC06C0EE0FBB0F661F771F65
:10088000881F28F0B23A62077307840728F0B25A2B
:10089000620B730B840BE3959A9572F7803830F4F2
:1008A0009A95BB0F661F771F881FD2F790480C944C
:1008B0006F04EF93E0FF07C0A2EA2AED3FE049ECA6
:1008C0005FEB0E9435020E947F030F90039401FCAE
:1008D0009058E8E6F0E00C947B049F3F31F0915093
:1008E00020F4879577956795B795880F911D969514
:1008F000879597F908959F938F937F936F93FF93B5
:10090000EF939B01AC010E94B903EF91FF910E940C
:100910008F042F913F914F915F910C94B903DF9316
:10092000CF931F930F93FF92EF92DF927B018C0185
:10093000689406C0DA2EEF010E94CC03FE01E89411
:10094000A5912591359145915591A6F3EF010E940E
:100950003502FE019701A801DA9469F7DF90EF9064
:10096000FF900F911F91CF91DF910895F894FFCFE1
:00000001FF
